:100000000C94B8020C94F0020C94F0020C94F002E0
:100010000C94F0020C94F0020C94F0020C94F00298
:100020000C94F0020C94F0020C94D3290C94AB2A9B
:100030000C949A0F0C94F0020C94F0020C94F002C1
:100040000C94F0020C94F0020C94F0020C94F00268
:100050000C94F0020C94AF290C94F0020C94F00272
:100060000C94F0020C94F0020C94F0020C94F00248
:100070000C94F0020C94F0020C94F0020C94F00238
:100080000C94F0020C94F0020C94F0020C94F00228
:100090000C94BF2C0C94F0020C94F0020C94F0021F
:1000A0000C94F0020C94F0020C94F002050109800B
:1000B000A101850319012AB700150126B700950192
:1000C00075108100C0050C0901A101850419012AE0
:1000D000A002150126A002950175108100C00660DE
:1000E000FF0961A1010962150026FF00952075082E
:1000F00081020963150026FF00952075089102C052
:1001000005010906A101050719E029E715002501E8
:10011000950875018102950175088101050719008F
:1001200029FF150026FF00950675088100050819AE
:1001300001290515002501950575019102950175A7
:10014000039101C00000000000000000000000005A
:10015000000000000000000000000000000000009F
:1001600000000000000000007E0F00D4FFFFFFC76A
:100170000000007800000000000000002A2B28008A
:100180000000000000000000000000000000002946
:10019000000000002C1E3420212224342627252E86
:1001A000362D3738271E1F202122232425263333BE
:1001B000362E37381F0405060708090A0B0C0D0EEA
:1001C0000F101112131415161718191A1B1C1D2FB6
:1001D0003130232D350405060708090A0B0C0D0ED6
:1001E0000F101112131415161718191A1B1C1D2F96
:1001F0003130354C09025B00030100A0FA0904000C
:10020000000103010100092111010001224400073E
:100210000581030800010904010002030000000930
:10022000211101000122220007058203200001079D
:100230000503032000010904020001030000000976
:100240002111010001223200070584032000011260
:100250000100020000000834127856000101020378
:10026000011C037600690061006C003A00660036EC
:1002700000340063003200620033006300000014A9
:1002800003740075007500760065006900740077DE
:10029000006F0000001C03530061006E00740065D5
:1002A00000720069006400610068006C0069006110
:1002B0000000000403090429003A003B003C003D13
:1002C000000000000000000000000035001E001FBC
:1002D0000020002100220023000000000000002B6D
:1002E0000014001A000800150017001C0000000090
:1002F000000000390004001600070009000A000B86
:1003000000000000000000E10031001D001B00069D
:100310000019000500000000000000E000E300E21A
:10032000002C000000000046000000000000003E1D
:10033000003F004000410042004300440045004BA4
:10034000004E0024002500260027002D002E002A44
:1003500000280049004A001C0018000C001200137D
:10036000002F0030004C004D0000000B000D000E6F
:10037000000F0033003400250200000000000005DB
:1003800000110010003600370038005200E1000074
:100390000000002C00E600E300E000500051004F98
:1003A00000000000000000A900AA0000000000FDFD
:1003B000377A585A000004E6D6B4460200210116E6
:1003C000000000742FE5A3E00462017E5D003D881B
:1003D00089C65436C3174FE4FA8944763B12A048C5
:1003E000FAFADCD39959CD64C15EA8995426F69ED9
:1003F0000764E9217C77141777F24BB0BFA4477DDF
:1004000073969FE27353C8F267EBDFFE4D08C06D31
:1004100052C4AFEAAF12A87DC5A99D026643F90296
:1004200062E4655EE21E39BA871CA07DC67A41D4BB
:100430008B5DF437C3D0F4D93A2C1E45AE1FECB215
:100440008F655771FB8520CBC5B863A12A9A10210F
:10045000F9166242671C7EEA77F8C1EC005EC7C7F6
:10046000AA1CE03B354432060367E8C0A97F7BE065
:10047000F5BFB9E34EA362A755F75060D718D61061
:10048000B851AABC810D93FE0C52B00FC252C210DB
:10049000C25900F1C59BBBAAFB3F772584483BA509
:1004A000FB3CD984DAECFBE403102C6A2B66E7BA38
:1004B0006F10FB41447D4A20CCA6C204765A0F6ED1
:1004C0000E55FA4147A4271DAF171493B341BCE959
:1004D0007396717347C45306621A28617E0D30B457
:1004E000E39A883C3919F3F717BD8F7F5D9A42066E
:1004F0009F1F93F3447EEDC3B6AD30EED78346C263
:10050000F1AF48052796AED5E53A5774F7508F738B
:100510003B3653615D5E77B67A8394952D4266389B
:10052000DAB1A0AA8962EBAEE17AF567F8B64810B5
:1005300065A2B72CBF1C97CB4D8F105C3A313C1E87
:100540002DEFDA6873C7882F359DE30000000004A3
:1005500068550F7DB6248E00019A03E3080000461B
:1005600024D1F2B1C467FB020000000004595A0014
:1005700011241FBECFEFDAE0DEBFCDBF04B603FE0D
:1005800018C080911A0590911B05A0911C05B0918F
:100590001D058730904BA740B04B59F410921A05B7
:1005A00010921B0510921C0510921D05E0E0F8E367
:1005B000099525E0A8ECB1E001C01D92AA31B2076F
:1005C000E1F711E0A0E0B1E0E6EDFDE502C0059045
:1005D0000D92A83CB107D9F70E94E3220C94682E33
:1005E0000C9400009C019A9581159F4118F5F32FFA
:1005F000F270EE27832F8170732F74706627532F4C
:100600005870442734FF0CC08295807FEF2B09F08F
:100610008062672B09F08064452B69F0806808953B
:10062000EF2B09F08260672B09F08460452B19F0ED
:100630008860089580E00895CF93DF93EB010E94D6
:10064000F202FE010995DF91CF9108958093F8049D
:1006500008958093F904089521E030E001C0220F4D
:100660008A95EAF78091F904822B0E942903089564
:1006700021E030E0A90102C0440F551F8A95E2F73E
:10068000CA0180959091F90489230E942903089555
:100690009B01677091E001C0990F6A95EAF763E0EA
:1006A000369527956A95E1F7B901660F771F260FF2
:1006B000371FFA01E20FF31F40E050E0682F70E0AF
:1006C0008191DF019B01042E02C0369527950A9483
:1006D000E2F7217021952827292328272E934F5FA1
:1006E0005F4F4330510561F708959C01A82FA77013
:1006F00083E0369527958A95E1F7C901880F991F00
:10070000820F931FFB01E80FF91F40E050E080E0EB
:10071000219130E00A2E02C0369527950A94E2F71F
:1007200021703327042E01C0220F0A94EAF7822B8E
:100730004F5F5F4F4330510559F70895282F862F9B
:10074000903F79F09C3070F42A3058F4622F70E0BA
:100750002AE0929F600D711D11244EE753E00E9424
:10076000480308959C5F9230E0F7622F70E04BE7FA
:1007700053E0F5CF903FC9F09C3080F48A30A8F464
:10078000282F30E06EE773E0A901EAE09E9F400D5C
:10079000511D1124CA010E94750308959C5F923077
:1007A00020F46BE773E090E0F6CF80E0089590913D
:1007B000F90421E030E0F90101C0EE0F8A95EAF773
:1007C000D90102C0AA0FBB1F6A95E2F7EA2B01C04C
:1007D000220F4A95EAF7892F8E23E81305C0892F47
:1007E000822B0E94290308952095822F8923F9CF17
:1007F000982F909580914A04892380934A04089504
:100800008091C303811531F01092C30310925004FC
:1008100010924F0408959C01803E910509F448C050
:10082000D8F48133910509F47DC048F489329105EB
:1008300009F46DC08A9709F47CC0C9010895893311
:10084000910551F18238910539F1C597B1F7809141
:10085000FA0485FFF2CF29C0843E910509F447C010
:1008600048F4823E910599F1833E9105A9F121EE6C
:1008700030E0E3CF863E910509F444C0873E910500
:10088000E1F68091FA0483FD61C09091FB0491FF31
:100890002BC024EE30E0D1CF8091FA048370811117
:1008A00052C08091FB0483FFC8CF29E230E0C5CF5E
:1008B0008091FA0480FD33C09091FB0490FFBDCF7E
:1008C00023EE30E084FFB9CF20E030E0B6CF809156
:1008D000FA0482FDF5CFB1CF8091FA0482FD30C0D9
:1008E0009091FB0490FD2FC084FFA7CFEDCF8091A6
:1008F000FB0481FFA2CF8091FA0427EE30E084FD53
:10090000E3CF9BCF8091FA0483FDF7CF96CF809100
:10091000FA0485FD1EC08091FB0483FF8ECF29E37E
:1009200030E08BCF8091FA0486FF87CF2AE230E057
:1009300084CF8091FA0486FF80CF21E330E07DCF21
:1009400022EE30E07ACF20EE30E077CF26EE30E0B6
:1009500074CF25E330E071CF9091FA0492FF10C07C
:1009600041E0282F2471243009F040E031E0282FA5
:100970002871283009F030E0431711F02CE082276D
:1009800093FF10C041E0282F2471243109F040E08A
:1009900031E0282F2871283109F030E0431711F099
:1009A0002CE082273091FB0430FF10C051E0282F4B
:1009B0002171213009F050E041E0282F28712830C2
:1009C00009F040E0541711F029E0822731FF10C0F0
:1009D00041E0282F2171213109F040E031E0282F3A
:1009E0002871283109F030E0431711F029E08227FF
:1009F00094FD877E08951F93CF93DF930E940B048D
:100A0000EC01811522E5920708F045C0811540E50B
:100A1000940708F0D4C0803E910530F58D3C9105D7
:100A200008F0A7C0883A910580F4853A910508F04E
:100A30009DC08130910509F454C00497813A910515
:100A400008F44FC0C0E0D0E04CC0885A91094B97E1
:100A5000C8F7C85AD0E0CC0FDD1FCE56DE4F099044
:100A6000D881C02DD4643DC0811550E2950708F0AF
:100A7000BCC0883E9105A8F19A9581159F4110F759
:100A80008D2F0E94AC04182FCE0199270E940B04D1
:100A9000EC01D12B26C0C03882E5D807E8F5C03676
:100AA00092E5D90708F06EC0C03422E5D207F0F411
:100AB000C03242E5D40708F05EC08C2F869586953B
:100AC00050E2859FC0011124C37021E030E0A901EC
:100AD00002C0440F551FCA95E2F7EA01C82BD92B73
:100AE000DD68CE01DF91CF911F9108958C2F8695FF
:100AF0008695877050E2859FC0011124C37021E064
:100B000030E0A90102C0440F551FCA95E2F7EA017F
:100B1000C82BD92BDC68E5CFC03C52E5D50768F47B
:100B20008C2F8F71C03AD24508F042C090E0982FC8
:100B30008827EC01C46FD06AD4CFCE01805C924587
:100B4000809708F07FCFCE0123E0880F991F2A9568
:100B5000E1F7807E9927C370DD2721E030E0A9010D
:100B600002C0440F551FCA95E2F71DC0A497D06478
:100B7000B8CFD065B6CFCF71D0E0DC2FCC27C16F16
:100B8000D06AAFCF8C2F86958695877020E2829FA2
:100B9000C0011124C37021E030E0A90102C0440F5C
:100BA000551FCA95E2F7EA01C82BD92BDA6899CF0D
:100BB0000E94AC04C82FD0E0DC2FCC2792CF8F71DD
:100BC0000E94AC0493E0CC0FDD1F9A95E1F7CC278F
:100BD000DF70282F30E084FF04C090E1899F9001EE
:100BE0001124C22BD32BD0697CCF99270E940B04F0
:100BF000EC0177CF80E00895F894E82FE295EF704C
:100C0000F0E041A18F7021E030E0B90102C0660F31
:100C1000771F8A95E2F7CB01962F9095942391A3A5
:100C200092A1892B82A37894089581E080934F0349
:100C300008959C0121158CE7380741F48091480301
:100C400090914903892B11F420E030E0C901089507
:100C5000E8ECF3E080E090E06EE170E244E450E222
:100C600029EB30E277836683518740873387228779
:100C700097878687019670968830910599F7089531
:100C800090911F03292F30E070912003A9014F5F3D
:100C90005F4F437055277417150689F0235E3C4F4C
:100CA00060FB87F9F90184839F5F937090931F0322
:100CB00080911D038F5F80931D0381E0089580E084
:100CC000089520B36C506F7081E090E001C0880FF0
:100CD0006A95EAF7982F9095922390BB91B3892B50
:100CE00081BB08958FB190E06C506F7002C09595F4
:100CF00087956A95E2F78170089510929204109298
:100D00009104E1E5F4E08581811102C0148216822C
:100D1000379684E0E938F807B1F70895AC013091CF
:100D2000940460919304232F621301C00895822FCD
:100D300090E0FC01EE0FFF1FE757FB4F0190F081A1
:100D4000E02DE417F50791F467E0649FF001659FDB
:100D5000F00D1124EF5AFB4F41E044832313E6CFFB
:100D60000196837099278093940408950196282F03
:100D70002370DACFFC01680F791F8FEF41E3919167
:100D8000892728E030E0982F990F87FF09C0892F25
:100D9000842721503040B9F7E617F70781F7089507
:100DA000892FF7CFFC018481862381110AC08281BB
:100DB0008115B9F06823908593FF05C081E061112A
:100DC0000FC080E00895282F22952F708F70282B58
:100DD000962F92959F706F70962B81E02913F1CF1B
:100DE000089581E00895FA01309709F00995089572
:100DF00080916503811559F0E0917103F0917203C0
:100E0000309729F00190F081E02D0995089580E058
:100E10000895A3E0B0E0EFE0F7E00C94902D9C0182
:100E20008091FA019091FB0182179307A1F0309312
:100E3000FB012093FA01E0917103F0917203309766
:100E400051F083E089833B832A830084F185E02D80
:100E5000CE01019609952396E2E00C94AC2DA3E017
:100E6000B0E0E5E3F7E00C94902D9C018091F8014F
:100E70009091F90182179307A1F03093F901209323
:100E8000F801E0917103F0917203309751F084E022
:100E900089833B832A830084F185E02DCE0101966E
:100EA00009952396E2E00C94AC2D9C01FC0132964E
:100EB0008FEF90E04191461751F08F3F19F44111A7
:100EC00001C0892F9F5F9630A9F78F3F09F40895DD
:100ED000280F311D87FD3A95F90162830895ECECE6
:100EE000F1E09191891302C0DF011E9291E0E23D91
:100EF000F907B9F708952FB7F8946091F40170914C
:100F0000F5018091F6019091F7012FBF0895CF92DE
:100F1000DF92EF92FF9280916503811559F00E9454
:100F20007B076B017C01C701B601FF90EF90DF905A
:100F3000CF9008950E947B07C0906703D09068030C
:100F4000E0906903F0906A03C60ED71EE81EF91EF2
:100F5000EACF0F931F938B019C014FB7F8946091D8
:100F6000F4017091F5018091F6019091F7014FBF66
:100F7000601B710B820B930B1F910F910895EF92E1
:100F8000FF920F931F93CF93DF937C010091BD03DA
:100F90001091BE03D091BF03C091C003B8018D2F43
:100FA0009C2F0E94A907643F71408105910510F1B3
:100FB0000E947B078B01D82FC92F82E390E0A0E02D
:100FC000B0E00093190310931A03D0931B03C0934E
:100FD0001C038093150390931603A0931703B093FB
:100FE0001803E092BB03F092BC03CDB7DEB7E6E096
:100FF0000C94A82D84EF91E0A0E0B0E0E2CF8091C6
:10100000F301089508950895FC019B018091E90181
:101010009091EA018617970740F0672B29F4809199
:10102000E8008E778093E800C90140E0009741F422
:10103000411106C08091E80082FF2FC080E0089532
:1010400020914A032115A9F12530A9F12091E8004A
:1010500023FD2DC02091E80022FDECCF2091E80077
:1010600020FFE4CF3091F3002091F200009719F0B7
:101070002830310558F041E02830310509F040E0D2
:101080002091E8002E772093E800D0CF4191409343
:10109000F10001972F5F3F4FE9CF80914A038115FF
:1010A00041F0853041F08091E80083FFC3CF81E0BB
:1010B000089582E0089583E008958091E30187FF19
:1010C00013C08091E80082FF06C08091E8008B7712
:1010D0008093E800089580914A038111F2CF08952A
:1010E00080914A038115D9F38091E80080FFF8CF01
:1010F0008091E8008E77ECCF2091E4003091E500FC
:1011000095E6A9012091EC00822F817020FF06C096
:101110008091E80080FF06C080E008952091E800FB
:1011200022FD1AC080914A03811589F0853089F02B
:101130008091EB0085FD0FC02091E4003091E50027
:1011400042175307F9F29A95E1F684E0089582E098
:10115000089583E0089581E00895E8EDF0E080814E
:101160008E7F80831092E2001092DA001092E100EC
:10117000A0EEB0E08C9181608C9380818F7780832A
:1011800019BCA7EDB0E08C918E7F8C9380818F7E0F
:1011900080831092E201089590914C04892F8D7FF5
:1011A00080934C04292F2570211111C091FF0FC08D
:1011B0009091FB0492FF0BC08695869586950E94C0
:1011C000380310924C0410924E0410924D0408956E
:1011D000982F9093E900891771F07091EC0020919D
:1011E000ED005091F00021FD09C09F5F973089F715
:1011F0008093E9000895762F242F50E03091EB0082
:101200003E7F3093EB003091ED003D7F3093ED0059
:101210003091EB0031603093EB007093EC00209341
:10122000ED005093F0002091EE0027FDDECF0895F1
:10123000A0E0B0E0EEE1F9E00C948A2DC8EDD0E03A
:1012400088818F7E8883E7EDF0E0808181608083F4
:1012500084E082BF81E08093E20188818E7F888371
:1012600002EE10E0F80110821092DA0081EEC82E32
:10127000D12CF601108288818F77888388818068DD
:10128000888388818F7D888319BC10924A031092CD
:10129000E1011092FB021092E00190EEE92EF12C98
:1012A000F70180818B7F808388818160888342E021
:1012B00060E080E00E94E808F60180818E7F8083F4
:1012C000F801808181608083808188608083F7015C
:1012D00080818E7F8083888180618883CDB7DEB7EF
:1012E000E8E00C94A62D81E08093E00080E28093FA
:1012F000D8001092C9008FE19EE40197F1F700C079
:10130000000087E090EBDC0180931A0590931B05A9
:10131000A0931C05B0931D0588E19CE00FB6F894DE
:10132000A895809360000FBE90936000FFCF0F934D
:101330001F93CF93DF938B01EA0190914A0394307E
:1013400059F58093E9008FEF9091E80095FD06C074
:1013500095ED9A95F1F700008A95B1F78091E80034
:1013600085FF1AC00E947C08811111C08091E8009D
:1013700085FD06C08091E8008E778093E800F2CF6B
:10138000F80181918F018093F100219779F7809185
:10139000E8008E778093E800DF91CF911F910F9145
:1013A0000895CF93DF93D82FC92F48E050E0682FDE
:1013B000792F81E00E94970988E0ED2FFC2FABEE9A
:1013C000B1E001900D928A95E1F7DF91CF910895F8
:1013D000BC0143E050E084E00E9497090895A0E03A
:1013E000B0E0E5EFF9E00C94882D182F092FB62E08
:1013F000A72E7A018091DC019AE0C92ED12C8A3087
:1014000018F0CC24C394D12CC1E0D0E06B2D7A2D00
:10141000812F902FF7010995811116C02196CC16C6
:10142000DD0694F0CC9FC001CD9F900D900D11244E
:1014300020E030E045E34A95F1F700002F5F3F4F91
:1014400028173907B9F7E2CFCDB7DEB7EAE00C9439
:10145000A42D9091FB0492FB222720F9281771F00C
:1014600080FB92F99093FB046091FA047091FB0465
:1014700084E090E00E944A2E0E94CC0808951F93B9
:10148000CF93DF93962F122F632F8230F0F49C308E
:10149000E0F44A30D0F4C42FD0E0CC0FDD1F24E1BB
:1014A000929FC00DD11D112490E0919581959109D5
:1014B000807F9927C80FD91FCE0188960E942C2EB5
:1014C000612FCE0189960E942C2EDF91CF911F9122
:1014D00008950F931F93CF93DF93962F142F022F0E
:1014E000632F282F292B223008F528E0829FE00166
:1014F000112434E0939FC0011124C80FD91FC85F85
:10150000DD4F81E084279E01280F311D280F311DFA
:10151000C9010E942C2E81E090E0111102C083E0ED
:1015200090E0602F8C0F9D1F0E942C2EDF91CF9199
:101530001F910F910895CF93DF93C8E0D3E060E04F
:10154000CE010E942C2E2196C11584E0D807B9F750
:10155000DF91CF910895CF93C82F67E7811101C024
:101560006FEF84E290E00E942C2E6DE7C11101C064
:101570006FEF85E290E00E942C2E6EE5C11101C054
:101580006FEF86E290E00E942C2ECF9108950F938A
:101590001F93CF93DF93823048F56C3038F54A3093
:1015A00028F5C42FD0E0CC0FDD1F24E1629FC00DD1
:1015B000D11D112490E0919581959109807F992703
:1015C000C80FD91FCE0188960E940E2E082F10E05A
:1015D000102F0027CE0189960E940E2E9801282BED
:1015E000C901DF91CF911F910F91089580E090E0A4
:1015F000F8CFFF920F931F93CF93DF93F42E982F82
:10160000962B923060F528E0829FE001112434E0AF
:10161000639FB0011124C60FD71FC85FDD4F81E063
:1016200084279E01280F311D280F311DC9010E94FA
:101630000E2E082F10E0102F002781E090E0F1100F
:1016400002C083E090E08C0F9D1F0E940E2E980137
:10165000282BC901CDB7DEB7E5E00C94A92D80E0B9
:1016600090E0F8CF20916D0330916E03232BD9F4D5
:10167000703F39F4603FB9F480916B0390916C0333
:1016800008957C3048F46A3070F4823060F4462F5C
:10169000672F0E94C70A08957D3F41F4982F962B2B
:1016A00041E0923050F080E090E008957C3FD9F71F
:1016B000982F962B9230B8F740E00E94F90A0895CF
:1016C000A0E0B0E0E6E6FBE00C948B2D7C010091FD
:1016D000F9048091F804082BC1E0D0E010E0C801C3
:1016E0000C2E02C0959587950A94E2F780FD09C0FB
:1016F0002197A8F7D12C8D2DCDB7DEB7E7E00C945C
:10170000A72DDC2EB7018C2F0E94320B0E94FB0408
:10171000019771F3F0CFEF92FF920F931F93CF9346
:10172000FC010681178101151105A1F48581E08076
:10173000F1808115B1F06115A1F0C7010E94600B25
:10174000C82F682FC7010E949E03B7018C2F0E94EB
:10175000320B8C01C801CF911F910F91FF90EF9038
:101760000895C7010E94BA03C82FEFCF84E290E02A
:101770000E940E2E873789F485E290E00E940E2E9B
:101780008D3759F486E290E00E940E2E91E08E355E
:1017900009F090E0892F8170089580E0FCCFA0E0EF
:1017A000B0E0E5EDFBE00C94832DD82E522EC32E35
:1017B000780198E08902E0011124452B79F5FE01BA
:1017C000E45EFE4F86819781892B09F04EC0E114BB
:1017D000F10411F1FE01E45EFE4F8381A82EB12CCD
:1017E000E816F10408F45701C45EDE4F6C817D8178
:1017F000AB0141505B4F04E610E0950182E30E948B
:101800001D2C97FD2CC06C817D8161507B4FA50103
:10181000852D9C2D0E94EE2D81E022C0FE01E45E0C
:10182000FE4F8081A82EB12C853018F084E0A82EC0
:10183000B12CFE01E45EFE4F81809280C401815094
:101840009B4F3C01A5010E94EE2D04E610E095019E
:10185000A301682D82E30E94CB2B97FFB0CF80E0DD
:10186000CDB7DEB7EFE00C949F2DD092FF046091CE
:101870001D0170911E0120911C0130E0AB0141500F
:101880005B4F04E610E082E30E94CB2B97FF9FCFD3
:10189000E6CFA1E0B0E0EFE4FCE00C94842D762EDE
:1018A0005A014901680101E010E09E012F5F3F4F9E
:1018B00040E050E060E070E00E94CF0B182F8115EF
:1018C000A1F1F50160817181828193810E94A90754
:1018D0006980643671058105910530F4B701C60150
:1018E0000E94BA06861509F18701940140E050E094
:1018F00060E070E0872D0E94CF0B082FB701C60172
:101900000E94BA0610E086110BC0102F117000FF64
:1019100007C00E947B07F5016083718382839383F4
:10192000812F2196EEE00C94A02DA701B601C401F1
:101930000E94EE2DF5CFACE0B0E0E1EAFCE00C94C3
:101940008A2D6B018CE0E82EF12C01E015E09E0160
:101950002F5F3F4F41E653E062E081E00E94490C77
:10196000811549F09CE0FE013196A5E5B3E00190B8
:101970000D929A95E1F79CE0E5E5F3E0D601019040
:101980000D929A95E1F72C96E8E00C94A62DA8E02C
:10199000B0E0EDECFCE00C948C2D88E0E82EF12C0E
:1019A0000EE015E09E012F5F3F4F41E553E064E0FC
:1019B00083E00E94490C182F8115C9F190910D0503
:1019C00080915003981799F1F12C90911105809115
:1019D0001005891731F1E92FF0E0ED5FFA4F6785C7
:1019E00067FB662760F987859F5F93709093110569
:1019F00090910F059F5F90930F058F770E9440068F
:101A0000F82E8111E2CF00E010E020E030E040E06D
:101A100050E060E070E085E00E94CF0B1F2D18239E
:101A200002C0F110F0CF80910D0580935003812FFB
:101A30002896E6E00C94A82DA4E0B0E0E2E2FDE0F8
:101A40000C948E2D60914B0370914C0380914D034B
:101A500090914E030E94A90711E06436710581053B
:101A6000910520F10E948707DC01CB010296A11DA0
:101A7000B11D89839A83AB83BC8300E010E020E032
:101A800030E044E050E0BE016F5F7F4F86E00E948F
:101A9000CF0B182F811551F00E947B0760934B03E9
:101AA00070934C0380934D0390934E03812F2496A3
:101AB000E4E00C94AA2D8F929F92AF92BF92CF92A6
:101AC000DF92FF920F931F93CF93DF93CDB7DEB7D3
:101AD0006E970FB6F894DEBF0FBECDBFC09048031F
:101AE000D090490381E090E09093490380934803AC
:101AF00010E087EBA82E82E0B82E00E01AC021E0AB
:101B000030E0111104C0F401859194919C014F2D96
:101B1000602F812F0E943F0AF39482E0880E911C6F
:101B2000AAE0FA12ECCF0F5FB4E1AB0EB11C0C309F
:101B300019F04501F12CE3CF21E030E0111105C08F
:101B4000E7EAF3E0859194919C0141E060E0812F08
:101B50000E94690A21E030E0111105C0E9EAF3E0D2
:101B6000859194919C0140E060E0812F0E94690A78
:101B700021E030E0111105C0EBEAF3E0859194918A
:101B80009C0141E061E0812F0E94690A21E030E080
:101B9000111105C0EDEAF3E0859194919C0140E0BC
:101BA00061E0812F0E94690A81E0810F11E082309B
:101BB00009F09FCF1A8219821C821B821E821D820D
:101BC00018861F8288EC90E09A87898708E112E0E6
:101BD0004AE050E0B801CE0101960E94502E065F07
:101BE0001F4F083682E0180799F7FE013B968AE0FE
:101BF000DF011D928A95E9F7BE2EFF2E4AE050E0E4
:101C0000B8018B2D9F2D0E94502E065F1F4F083B61
:101C1000B2E01B0799F7FE01759689E0DF011D927E
:101C20008A95E9F78FEF9FEF9A8F898F87E08E8FE4
:101C3000BE2EFF2E4AE050E0B8018B2D9F2D0E9452
:101C4000502E065F1F4F0830B3E01B0799F7D09264
:101C50004903C09248036E960FB6F894DEBF0FBEDC
:101C6000CDBFDF91CF911F910F91FF90DF90CF906B
:101C7000BF90AF909F908F90089580E00E94AB0A34
:101C800060E087E290E00E942C2E0E945B0D0E9493
:101C90009B0A81E00E94AB0A0895A8E0B0E0E3E56A
:101CA000FEE00C94902D65EE7EEF80E090E00E94C7
:101CB0004A2E60E082E090E00E942C2E81E080932A
:101CC000F80461E083E090E00E942C2E60E074E173
:101CD00084E090E00E944A2E60E086E090E00E945E
:101CE0002C2E60E087E090E00E942C2E40E050E037
:101CF000BA0188E090E00E943E2E60E083E290E02E
:101D00000E942C2E60E08CE090E00E942C2E60E07F
:101D10008DE090E00E942C2E19821A821B821C8278
:101D20001D821E821F82188648E050E067E170E045
:101D3000CE0101960E941C2E40E050E0BA018FE1D6
:101D400090E00E943E2E80E00E94AB0A0E943D0E71
:101D500040E050E0BA018FE090E00E943E2E40E06B
:101D600050E0BA0183E190E00E943E2E2896E2E026
:101D70000C94AC2DAAE0B0E0E0ECFEE00C948A2DCF
:101D8000E8E8F2E080E5DF011D928A95E9F7E1E5F8
:101D9000F4E088E3DF011D928A95E9F788E8C82E10
:101DA00082E0D82E7F0108E612E0F701D182C082DE
:101DB0004AE050E0B801CE0101960E94FE2D88E075
:101DC000FE013196D60101900D928A95E1F7898541
:101DD0009A85D70113969C938E931297BAE0CB0EF7
:101DE000D11CE7E0EE0EF11C065F1F4F083BF2E04E
:101DF0001F07D9F62A96E8E00C94A62DAAE0B0E0D9
:101E0000E4E0FFE00C94862D00E112E08EEFC82E96
:101E100081E0D82E98EBE92E92E0F92E27E0922E61
:101E20003DEFA32E31E0B32E88248394D6010D9389
:101E30001D936D014AE050E0B701CE0101960E946A
:101E4000FE2DF8013896DF01892D1D928A95E9F75C
:101E500089819A81D80111969C938E938F811296D5
:101E60008C9312978D8113968C9313978885149673
:101E70008C931497898515968C9315978B819C81EB
:101E800017969C938E9316978A8587FD04C01E969D
:101E9000BC92AE921D9780FF02C0F801808681FF40
:101EA00007C0D80118969C911897926018969C9339
:101EB00082FF04C0F80190859460908783FF07C07B
:101EC000D80118969C911897986018969C9384FF57
:101ED00004C0F80190859061908785FF07C0D80104
:101EE00018968C911897806218968C93015F1F4FFB
:101EF000BAE0EB0EF11CE8E0EE16E3E0FE0609F0B6
:101F000095CF2A96ECE00C94A22D282FCB012830F7
:101F100070F44AE0249F90011124B901685E7D4F5E
:101F20004AE050E00E94FE2D80E090E008958FEF9F
:101F30009FEF08951F921FB61F9211248F939F93B6
:101F4000AF93BF938091FA02811113C08091F40185
:101F50009091F501A091F601B091F7014196A11D74
:101F6000B11D8093F4019093F501A093F601B09315
:101F7000F701BF91AF919F918F911F901FBE1F904E
:101F800018952FB7F8948091F4019091F501A091E4
:101F9000F601B091F7012FBF0895CF93DF93C09161
:101FA0004A0480914B04C82B8091C3038115F9F03A
:101FB0000E94C10F20914F0430915004821B930B5B
:101FC0008838934110F00E940004D091C30320E0B0
:101FD0008CEC91E0FC013081019631112F5F31E0F2
:101FE000823D9307B9F721110E940004CD2B809107
:101FF000B70380958C239091B603892B8093CA01F7
:1020000048E050E063E773E08AEC91E00E94E12D44
:10201000892BA9F088E0EAECF1E0A3E7B3E00190B6
:102020000D928A95E1F7E0917103F0917203309778
:1020300031F00280F381E02D8AEC91E00995DF9187
:10204000CF91089510924A04ECECF1E086E0DF01B4
:102050001D928A95E9F780E090E00E94090780E0F0
:1020600090E00E942F0710924B040E94CD0F08951C
:102070000E9422102FEF84E39CE02150804090408A
:10208000E1F700C0000088E19CE00FB6F894A89545
:10209000809360000FBE90936000FFCF982F8B322B
:1020A00058F4853098F0EBEFE80FE63278F4F0E082
:1020B000E659F14D0C94CB2D833450F48A3308F05B
:1020C00061C0853339F081E0983309F080E00895EC
:1020D0008334E1F781E00E9426030E94221002C0AF
:1020E0000E944D0E81E008958091FC02807F8093D4
:1020F000FC0281E08093AB03F5CF8091480390917F
:102100004903892B79F30E9422102FEF84E39CE08E
:10211000215080409040E1F700C000000E94730908
:102120009091FC02892F8E7F90FF81608093FC024A
:1021300080FDD8CF817F8093FC02D4CF9091FC02A8
:10214000892F8D7F91FF82608093FC0281FFCACF2F
:102150008091FC028160EFCF9091FC02892F8B7FF0
:1021600092FF84608093FC0282FDF2CFBBCF9091FE
:10217000FC02892F877F93FF88608093FC0283FD98
:10218000E7CFB0CF995381E001C0880F9A95EAF765
:10219000A2CF9D51F8CFAAE2B0E0E1EDF0E10C94BE
:1021A0008F2D83EE91E0FC0101962091F1002083B8
:1021B00021E08B3E9207B9F78091E401893009F460
:1021C00056C0C8F4823009F4B3C0833009F482C029
:1021D000813071F18091E80083FFE7C08091E301D5
:1021E0009091E4019A3008F0E0C0E92FF0E0E05768
:1021F000F14D0C94CB2D8A3009F489C08B3051F706
:102200008091E301813231F78091E7019091E801FB
:10221000892B01F78091E800877F8093E8000E9476
:102220005D088091E501809300010E942210D2CFC9
:102230008091E301813A71F68091E800877F809375
:10224000E8008091E7019091E801892B61F060E05E
:1022500080E090E070E00E9404088091E8008B77B5
:102260008093E800B7CF68E08BEE91E0F3CF8091E8
:10227000E301813209F0AECF8091E7019091E8014E
:102280008D7F892B09F0A6CF8091E800877F80930E
:10229000E8008091E80082FF18C09091F3008091DF
:1022A000F200029731F48091F100813011F0863014
:1022B00021F48091F1008093F3018091E8008B7705
:1022C0008093E8000E945D0885CF80914A038111C8
:1022D000E0CF80CF8091E301813A09F07BCF8091FC
:1022E000E7019091E801892B09F074CF8091E80013
:1022F000877F8093E8008091E80080FFFCCF809189
:1023000000018093F1008091E8008E77D9CF809111
:10231000E301813209F05ECF8091E800877F8093EE
:10232000E8000E945D088091E6018093DF0152CFB2
:102330008091E301813A09F04DCF8091E800877FD9
:102340008093E8008091E80080FFFCCF8091DF015E
:10235000D8CF803889F0823841F58091E7018F70BD
:10236000873018F58093E9008091EB0085FB882782
:1023700080F91092E90006C08091FB02880F9091CD
:10238000E001892B9091E800977F9093E80080937B
:10239000F1001092F1008091E8008E7723C0811146
:1023A00016C08091E501813011F18091E80083FF32
:1023B0000AC08091E800877F8093E8008091EB005D
:1023C00080628093EB00AA96E3E00C94AB2D823000
:1023D00061F78091E501811589F01092E900809103
:1023E000E800877F8093E8000E945D08DECF81E0EF
:1023F000933009F080E08093FB02EFCF8091E701FA
:102400008F702FEF280F263080F68093E9002091FF
:10241000EB0020FFE2CF933031F48091EB0080623B
:102420008093EB00DACF9091EB0090619093EB00FA
:1024300021E030E0A90102C0440F551F8A95E2F760
:102440004093EA001092EA008091EB008860E8CFA8
:102450008111ABCF1091E5011F778091E300807867
:10246000812B8093E3008091E800877F8093E800D0
:102470000E945D088091E80080FFFCCF8091E3001E
:1024800080688093E30083E0111101C082E08093B3
:102490004A038BCF8058823008F087CF8091E501C6
:1024A0009091E6018C3D53E0950799F583E08A838E
:1024B0008AE289834FB7F894DE01139620E03EE06C
:1024C00051E2E32FF0E050935700849120FF03C0C6
:1024D00082958F703F5F8F708A30C8F0895C90E082
:1024E0008D939D932F5F243161F74FBF8091E8005A
:1024F000877F8093E8006AE270E0CE0101960E9437
:1025000004088091E8008B778093E8004ECF805DCF
:10251000E6CF292F33272330310509F44EC078F553
:102520002130310509F488C08BE590E0E4EFF1E05B
:102530002230310509F039CF2091E800277F209320
:10254000E8002091E9013091EA018217930708F42D
:102550009C0140E02115310509F073C0411171C0A3
:102560008091E80082FDCDCF80914A03811549F228
:10257000853039F28091E80083FFF2CFC2CF80919D
:10258000E7019091E8012132310509F446C0223279
:10259000310509F00ACF8330910508F006CFFC0120
:1025A000EE0FFF1FEC58FE4F0190F081E02D8F5889
:1025B0009E4FDC018C9190E010C09C01332782304B
:1025C00021F12330310568F4232BB9F4E3EBF2E079
:1025D000E4918E2F90E0E3EBF2E0009709F4E5CE72
:1025E000ABCF2330310509F0E0CEE1E6F2E0E49133
:1025F0008E2F90E0E1E6F2E0F0CFE5E9F2E0E49141
:102600008E2F90E0E5E9F2E0E8CFEFE7F2E0E49129
:102610008E2F90E0EFE7F2E0E0CF8330910508F0F5
:10262000C4CEFC01EE0FFF1FE658FE4F0190F08173
:10263000E02D89E090E080CF82E190E0EFE4F2E0ED
:102640007BCF80914A03811509F45BCF853009F473
:1026500058CF8091E80083FD54CF8091E80082FD3F
:102660007FCF8091E80080FF75CF9091F30080913B
:10267000F2002115310519F08830910550F041E044
:10268000089709F040E08091E8008E778093E80099
:1026900061CF44914093F100319621503109019668
:1026A000E8CF803809F081CE8091E800877F809361
:1026B000E8008091E1018093F1006DCE811175CE2B
:1026C0001091E501123008F070CE8091E800877F0C
:1026D0008093E8001093E1010E945D081115D1F08C
:1026E00084E080934A0342E061EC81E00E94E808C4
:1026F00042E261EC84E00E94E80842E261EC82E0A0
:102700000E94E80842E260EC83E00E94E8088091C1
:102710004A034BCE8091E30087FDE2CF81E0E1CF19
:10272000CF93C82F8115B9F18CEF8C0F813AA8F5A2
:102730008091AB03811529F08130F9F01092AB0341
:1027400009C080914A04823229F48C2F0E944E10D5
:10275000811121C0ECECF1E082ED91E02191C217F2
:1027600009F445C08E179F07C9F76C2F8AEC91E0DA
:102770000E9455070E94CD0F0EC080914A048232FC
:1027800021F3C932D9F228F4CB3029F0C431B1F2A7
:10279000E1CFC833F9F6CF91089580E28C0F8830ED
:1027A00068F4C77021E030E001C0220FCA95EAF753
:1027B00080914A04822B80934A04DCCF8BE58C0FF6
:1027C000833038F42C2F2452330BC9010E9409079F
:1027D000E2CFC85ACB31F8F6EC2FF0E0EE0FFF1F36
:1027E000EE56FE4F808191810E942F07D4CF8C2F0F
:1027F0000E946F070E94CD0FB8CFCF93DF93EC01FB
:10280000805E9109089720F061E275E1209711F44C
:1028100060E175E1CE010E941C038C2F0E94901391
:10282000DF91CF910895811539F19CEF980F913A7E
:1028300028F40E946F070E94CD0F089590E2980F30
:10284000983050F4877091E001C0990F8A95EAF7AB
:10285000892F0E94F803EFCF9BE5980F933028F45F
:1028600080E090E00E9409070895885A8B3120F497
:1028700080E090E00E942F0708950F931F93CF935D
:10288000C82F8B010E9490130115110539F48C2F6C
:102890000E941314CF911F910F9108958FE99FE02B
:1028A0000197F1F700C0000001501109EDCFA0E041
:1028B000B0E0EDE5F4E10C94892DEC0188818115FF
:1028C00009F4A9C0813009F04AC08981813079F4C6
:1028D0008E010E5F1F4F8A8160E570E0893311F031
:1028E00060E070E00E943D14E8012196E7CF82305D
:1028F00039F48E010E5F1F4F8A810E949013F4CF2E
:10290000833039F48E010E5F1F4F8A810E941314A9
:10291000EBCF843011F02196E8CF2A81229680E017
:1029200090E06AE0AE014F5F5F4F2053330B2A30D7
:10293000310550F00097C9F2EFE9FFE03197F1F768
:1029400000C000000197F6CF689FF001699FF00D6D
:102950001124C9018E0F9F1F2981EA01E3CFE82FBF
:10296000F0E0EC58FE4FB490282F2695269526953A
:1029700030E0F901EC59FE4FE4908770F12C082EFD
:1029800002C0F594E7940A94E2F7E0FAEE24FF24FB
:10299000E0F8F901EC5AFE4FC490D12C082E02C089
:1029A000D594C7940A94E2F7C0FACC24DD24C0F889
:1029B000F901EC5BFE4F049110E002C015950795FC
:1029C0008A95E2F701701127E114F10419F081EE04
:1029D0000E949013C114D10419F086EE0E94901346
:1029E00060E070E08B2D0E943D14C114D10419F0F9
:1029F00086EE0E941314E114F10419F081EE0E9496
:102A000013140115110509F470CF60E070E08CE239
:102A10000E943D146ACFCDB7DEB7E9E00C94A52D36
:102A2000811539F090914A04892B80934A040E94C1
:102A3000CD0F0895811521F00E94F8030E94CD0F5B
:102A40000895811539F090914B04892B80934B04A4
:102A50000E94CD0F0895811541F0809590914B040F
:102A6000892380934B040E94CD0F0895CF93DF9369
:102A7000EC014A855B856E857F850E94F3069B810C
:102A8000909580914B04892380934B048C810E9404
:102A9000F8030E94CD0F86E0FE0111928A95E9F7B6
:102AA000DF91CF910895CF93DF93EC018D8181FD6C
:102AB00017C082608D8380914B049B81892B80930A
:102AC0004B0480914A049C81892B80934A040E9484
:102AD000CD0F488559856E857F85CE010E94F3060E
:102AE0001092C5031092C4038D8180FD03C0CE01F6
:102AF0000E943615DF91CF9108951F93CF93DF93F6
:102B0000182FA091B903B091BA03109709F44AC0E5
:102B10001092BC031092BB031092B7031092B6033D
:102B20001696CD91DC911797CE019A9581159F410C
:102B300008F4D07ED1E0C11101C0D0E01996ED912A
:102B4000FC911A97309731F01B966D917C9180E043
:102B50000995D823D11539F08CEF8C0F813A30F5D7
:102B60008C2F0E946F071115A9F0E091B903F09125
:102B7000BA03808584FD0EC08091B803811551F0A1
:102B8000808191819C01215031092F333E4710F4FF
:102B90000E94BF070E94CD0F1092BA031092B90392
:102BA0001092B803DF91CF911F9108950E94CD0F2D
:102BB0008C2F0E941314D7CF9C014FB7F8948091AB
:102BC000F4019091F501A091F601B091F7014FBF8A
:102BD000821B930B0895FF920F931F93CF93DF9364
:102BE000C62FD42F122F8115A9F0609348040E949C
:102BF000C10F9093DE018093DD01C77081E001C0B9
:102C0000880FCA95EAF70E941015CDB7DEB7E5E048
:102C10000C94A92D80914804681332C08091DD0185
:102C20009091DE010E94DC15883C910548F500E298
:102C30000D0FCD17A9F0C770FF24F3948F2D01C09D
:102C4000880FCA95EAF70E941A15083048F48D2FAC
:102C5000877001C0FF0C8A95EAF78F2D0E9410152E
:102C600060E070E0812F0E943D14083070F6D7704C
:102C700081E001C0880FDA95EAF70E941A15C5CFE6
:102C8000C77081E001C0880FCA95EAF7F6CFA8E0C7
:102C9000B0E0EDE4F6E10C94802D7C01DC011496AB
:102CA0008C91811509F45FC161E0C7010E948B0B13
:102CB0008C01F7018581811519F18091C4039091F0
:102CC000C5030097E9F008171907D1F0992764E0C8
:102CD000880F991F6A95E1F7FC01E353FC4F2081AF
:102CE0002460208388539C4FDC010D931C930E9429
:102CF000531510924B0461E0C7010E948B0B8C01AD
:102D0000F7018581811509F4BBC0C8019757803848
:102D1000910508F0E7C0D02EF0E10F1708F014C1BC
:102D20008FEF93E00E940E2E81110EC108E013E098
:102D3000D11036C054E0652EAE014F5F5F4F5A018F
:102D4000D501E62D1D92EA95E9F74801FFEF8F1AAC
:102D50009F0AC8010E940E2E8983811509F4F4C0D0
:102D6000813009F087C0680122E0C20ED11CC40185
:102D70000E940E2E782E8A83811509F4E5C08FEF0C
:102D8000870D8330D8F4C6010E940E2E8B838115E7
:102D900019F0C5010E9457140D5F1F4F68016EC0E6
:102DA000011524E0120709F4CFC0C8010E940E2EBD
:102DB0000F5F1F4F8111F4CFDA94BACF8BEF870DDD
:102DC000833060F5480143E0840E911CC6010E94E7
:102DD0000E2E8B83811509F450C00C5F1F4F6801C4
:102DE000C4010E940E2E8C83811509F447C08B818B
:102DF0009C818130AFEF9A0710F0982F8827B6E0BA
:102E00007B1631F0E7E07E1631F00E94112036C0CB
:102E10000E94BA1F33C00E94DE1F30C0F4E07F1250
:102E20002DC0C6010E940E2E982E680124E0C20E0D
:102E3000D11CC80103960E940E2E282F911409F46C
:102E400083C0811509F480C02150330B4FEF429F9E
:102E5000C001439F900D1124492D4150550B840F03
:102E6000951F019758F0AFE9BFE01197F1F700C047
:102E70000000F7CFC5010E9457146401860160CF9E
:102E80006801E7E5DE1AC114F1E0DF0658F56CEAE7
:102E900073E08C2D0E94850F892B21F5C60134E04B
:102EA000880F991F3A95E1F7FC01E853FC4F228106
:102EB0002130A1F52091AC033091AD03232B91F08B
:102EC0002091AE033091AF03232B61F02091B0032A
:102ED0003091B1034091B2035091B303242B352BB1
:102EE000232B21F1D70115965C90511409F43FC0B2
:102EF0000E35BCE71B0729F10F35ECE71E0741F043
:102F00000D35FCE71F0799F5809154018115C9F033
:102F10001092540180E00E947D1516C0223011F7F6
:102F20002091B0033091B103232BE1F2FC01E35374
:102F3000FC4F20812E7F208388539C4F0E94531585
:102F4000D1CF81E08093540180914C04877081152A
:102F500051F0D70115968C91811529F08091FB04D1
:102F600082FD0E94CC082896E2E10C949C2D809171
:102F70005401811114C0C80197558115914008F47E
:102F800075C1D70115968C91F801E851FC47E730DF
:102F9000F10508F0B0C1E656F14D0C94CB2D480177
:102FA00030EE831A91083090C30380914A04382A86
:102FB00048E08416910408F058C098012770332720
:102FC00081E090E001C0880F2A95EAF7511409F4D6
:102FD00049C0382AD7018D919C910E94BA0321E003
:102FE00030E0390102C0660C771C8A95E2F7E09167
:102FF000B903F091BA03FE83ED832091C1033091B0
:10300000C20338872F83212CE22DF0E0EE0FFF1F43
:10301000E250FE4FC080D180C114D10409F43EC0FB
:10302000311005C0D60112968C91811119C0F6019C
:10303000838190E086219721892B91F08085982FBC
:103040009770911101C087E0F8E08F16910408F0A5
:1030500051C0511409F44AC08695817081114FC046
:103060002394D2CF80953822B5CF51102CC08091B7
:10307000C1039091C2030817190781F41092C2038B
:103080001092C1031092BD031092BE031092BF03B1
:103090001092C0031092BC031092BB038091B9033D
:1030A0009091BA03009709F466CFA8E08A169104BC
:1030B00008F0C5C0632D0E94D206811162CF81E065
:1030C0000E947D155ECF1093C2030093C1030E943E
:1030D0007B076093BD037093BE038093BF039093FF
:1030E000C0031092BC031092BB0374CF82FB8827ED
:1030F00080F9B4CF511409F4B3CF80FFB1CFD6011A
:10310000AD90BC900A151B0519F4511409F4A8CF11
:10311000ED81FE81CE16DF0609F4A2CFD6011D9601
:10312000ED91FC91309721F08081811509F498CFC1
:10313000632DC6010E94D206811509F491CF81E06A
:103140000A151B0509F080E0482E4520A114B104A2
:1031500041F0411006C0EF81F885AE16BF0609F0B8
:103160007FCF80E00E947D15D092BA03C092B90350
:1031700081E08093B803D60115968C9115978093C2
:10318000B70341100CC0AB2851F08D919C919C016C
:1031900024503109213A3105A0F50E946F07F6014C
:1031A000A680B780C5019A9581159F4110F420EE45
:1031B000B22277247394C50101978F339E4708F09C
:1031C000712CD6011996ED91FC911A97309731F038
:1031D0001B966D917C9181E009957822711471F0B4
:1031E000F601868197810E94F2028093B603C501A1
:1031F000F8E08F16910440F40E94BF070E94CD0FA3
:103200000CC00E941314CBCF0497813A910558F457
:103210006A2D8AEC91E00E945507411409F4ABCE67
:103220000E94CD0F91CE0E94CD0F8FE39CE90197B4
:10323000F1F700C000008A2D0E949013EECFFC0130
:10324000208131810217130741F4511009C01092F7
:10325000B80380E00E947D158ECE511409F48BCE08
:10326000DC0118968C9185FD86CEF3CFF701858120
:10327000F801FF2794E0EE0FFF1F9A95E1F79F01F9
:1032800028533C4F6901E353FC4F908180FB90F938
:103290009083811509F452C00E94C10F9093C70317
:1032A0008093C603D60112968C9112978F5F129667
:1032B0008C93129780914B0490914A04892B13961A
:1032C0008C9313978091C30314968C93149716963E
:1032D0004D915C9117971E966D917C91C6010E944D
:1032E000F306F601858181FD26C0902F812F9093F2
:1032F000C4038093C503F7018581811509F4F3C2E6
:1033000010924804980130572332310508F0F9C271
:1033100084E090E00E94162E9093FB048093FA04C0
:10332000F801E150F047E232F10508F042C0EF55F4
:10333000F14D0C94CB2D90E080E0D9CFD9011C96B3
:103340004D915C911D971E966D917C91C9010E94D3
:10335000F306F601858181FFCECFC6010E943615A6
:103360008091C4039091C5030817190721F61092A4
:10337000C5031092C403BFCF26E241EE61EE0E9466
:10338000EB15E2CD27E245EE65EEF9CF26E241EE00
:1033900060EEF5CF27E245EE64EEF1CF26E241EE96
:1033A00062EEEDCF27E245EE66EEE9CF28E241E09E
:1033B000EBCF8091FA0481608093FA046091FA0463
:1033C0007091FB0484E090E00E944A2E0E9422103B
:1033D000BBCD8091FB0488608093FB04EFCF80918C
:1033E000FA048260E9CF8091FA048460E5CF80918D
:1033F000FA048860E1CF8091FB048160EDCF809179
:10340000FB048260E9CF8091FA048061D5CF80917E
:10341000FA048062D1CF8091FA048064CDCF0E94FB
:1034200022108091FA048068C7CF8091FA048C60E2
:10343000C3CF8091FB048360CFCF8091FA048E7F4D
:10344000BBCF8091FB04877FC7CF8091FA048D7F2B
:10345000B3CF8091FA048B7FAFCF8091FA04877F3E
:10346000ABCF8091FB048E7FB7CF8091FB048D7F23
:10347000B3CF8091FA048F7E9FCF8091FA048F7D25
:103480009BCF8091FA048F7B97CF0E94221080916E
:10349000FA048F7791CF8091FA04837F8DCF80914A
:1034A000FB048C7F99CF8091FA04992782FF939532
:1034B00090FB82F990FB83F97FCF8091FB04982FDA
:1034C000909590FB80F990FB81F986CF9091FA045A
:1034D000892F8F7B96FF80646FCF0E94221090917E
:1034E000FA04892F97FB87F9805866CF61E08EE058
:1034F00090E00E942C2E62CF60E0F9CF9091FA0408
:10350000892F8F7E94FF806157CF9091FA04892F85
:103510008E7F90FF816050CF9091FB04892F877F31
:1035200093FF886059CF89E2E9C10737FCE71F079D
:1035300009F46FC008372CE7120709F479C0811528
:10354000A9F00A353CE7130709F49EC008F076C0DD
:1035500001305CE7150709F495C003308CE71807C4
:1035600009F48AC001151C4709F479C0F701868166
:103570009781009709F48CC00E94FB048C01F7012D
:10358000D58080914C0487708115B9F0CD2CD11471
:10359000A9F0812F807F803421F080E2800F883075
:1035A00060F08091FB0482FF08C00E94CC088091EB
:1035B0004C048770CC24C3948111C12C812F829537
:1035C0008F70883009F4E5C008F079C0823008F4C3
:1035D00089C0843009F4C2C0C114B1F080914C0498
:1035E00080FD12C0D70115961C928695869586950A
:1035F0000E942C03C7010E94471680914C048695B7
:10360000869586950E94380360E0C7010E948B0B67
:10361000AACC811549F081E00E942C0343E062E0CE
:1036200081E00E94D70390CC81E00E943803F6CF5E
:10363000811511F082E0F0CF82E0F7CF0B35ACE7D7
:103640001A0721F18091FB04002482FF0394802D4E
:103650000C351C4709F08ACF0E94290A87CF0E94A7
:103660002210EFEFF4E32CE0E150F0402040E1F7CE
:1036700000C000000E9473096FEF7FEF80E090E0D0
:103680000E944A2E0E94381081E0E6CF80E0E4CF0D
:103690008581C080D180811569F0C6010E94600BD0
:1036A000182F682FC6010E949E03B601812F0E9429
:1036B000320B62CFC6010E94BA03182FF6CF8930B1
:1036C00009F4D6C08A5F8F70823008F085CF023F40
:1036D00009F0DFC0812F8F71D11409F4E3C00E947B
:1036E00038037ACFF12FFF70BF2E103118F0B2944B
:1036F00080EFB822D114C9F0B11469F080E2800FD4
:10370000883010F001110BC080914A048B298093FE
:103710004A040E94CD0F802F0E9490135DCF8091AC
:103720004B048B2980934B04F4CF802F0E941314F9
:10373000B11409F451CF80E2800F883010F00111EC
:1037400006C08B2D0E94F8030E94CD0F45CFB09488
:1037500080914B048B2180934B04F6CF812F86956B
:1037600086958370811561F0813009F035CFC801ED
:103770009370D11002C080E090E00E942F072CCF00
:10378000C8019370D11002C080E090E00E94090748
:1037900023CF812F8370811134C0D11027C0402FD7
:1037A000429546954770440F440F802F8F70042E2A
:1037B00001C0880F0A94EAF7202F207104FF07C088
:1037C0002FE030E001C0220F4A95EAF720951695C8
:1037D00016951370123081F0133061F03091F804B7
:1037E000113039F0822B83230E9426030E94F806B1
:1037F000F3CE832B822BF8CF822B9091F80489276C
:10380000F3CFD11451F110FFF1CF402F42954695DF
:103810004770440F440F802F8F70042E01C0880F13
:103820000A94EAF7202F207104FF07C02FE030E050
:1038300001C0220F4A95EAF7209516951695137048
:10384000123089F0133069F03091F904113041F0F1
:10385000822B83230E942903C9CF823038F2D5CF2F
:10386000832B822BF7CF822B9091F9048927F2CFFB
:103870001F70D11439F0812F0E942C03802F0E94D9
:103880001015B4CF802F0E941A15812F0E94380383
:10389000ADCF033F51F0013FA9F4812F8F71D114B7
:1038A00009F41DCF0E942C0397CE80E0D11439F08B
:1038B0001F7181E0012E01C0880F0A94EAF70E946F
:1038C00029038ACED11027CF093349F42FEF37EEE1
:1038D00043E0215030404040E1F700C00000802F1D
:1038E0000E94131479CE0631BCE71B0709F01DCEE8
:1038F00080914904811509F416CE85E30E946F0773
:103900008FCC0631ECE71E0709F00FCE80914A04F8
:103910008A7A91E0811101C090E09093490465E3B7
:10392000811101C069E28AEC91E00E94550778CCD0
:103930000F931F93CF93DF938091F504E091FC01E7
:10394000CCE0811129C0DF91CF911F910F91089593
:10395000D1E0DE0FD093FC010E2F10E0CE9FF001DE
:103960001124EB56FB4F84818115A9F08681978144
:10397000892B21F480859185019619F4CF010E944D
:103980004716C09FF001C19FF00D1124EB56FB4F6D
:10399000148210924B04ED2F8091F504E817C0F2C9
:1039A0001092F5041092FC01CECFA4E0B0E0EBED54
:1039B000FCE10C94812D20919404298397E0992EA9
:1039C000EE24E394F12C3CE0332E44E0542E6624A4
:1039D0006394809193049981891308C00E94981C74
:1039E0000E947D062496E1E10C949D2D7981672F3C
:1039F00070E07C836B83FB01EE0FFF1FE757FB4FEB
:103A000080819181989ED001999EB00D1124FD0175
:103A1000EF5AFB4FFA83E983248121115BC0709038
:103A2000F504E5E9F4E040E050E0812C471508F0AA
:103A30004FC0A284B384A981BA81CD90DC900FEFEE
:103A40001FEF412C242D30E0B601640D711D640D73
:103A5000711DDB016D917C916115710539F0A61620
:103A6000B70609F0980143948901ECCF0F3F100786
:103A7000D1F1B701002E01C0660F0A94EAF7862A39
:103A8000B701042C02C0660F771F0A94E2F79B016E
:103A9000215031098216130629F5349EF001359E16
:103AA000F00D1124EB56FB4F989ED001999EB00D5E
:103AB0001124AF5ABB4F12962D913C911397378327
:103AC00026835482108211829187808715966C928A
:103AD0000E948E068B819C8101969A8389838370D4
:103AE000898377CF14824F5F5F4F3C969FCF1092B0
:103AF000F7041092F604109255018091930480937C
:103B000094040E947D060E94981C0895AFE1B0E0E5
:103B1000ECE8FDE10C94802D498B5A8B6B8B7C8BF0
:103B20008D8B9E8B911110924B04188A1F8686E014
:103B3000FE017196DE01199601900D928A95E1F7CA
:103B40008091FB0482FF1DC00E94C10F20914D0493
:103B500030914E04821B930B8838934128F080915A
:103B60004C0482FF0E94CC080E94C10F20914F0498
:103B700030915004821B930B8838934110F00E94BF
:103B800000048D85811589F061E0CE0109960E94BF
:103B90008B0B5C018E8540E5A4164CE7B40651F40E
:103BA0008115F1F081E080935501CE0109960E94C4
:103BB0004716CBC051E5A5165CE7B50629F481157B
:103BC00079F00E94771DF1CF62E5A6166CE7B60684
:103BD00039F4811529F0809155018111F2CFE2CF9E
:103BE00001E514E0E12C812C912C66246394712C66
:103BF000D8016D917C91CC24CA94DD24DA9480E0C4
:103C0000282F30E0FB01E80FF11DE80FF11D408186
:103C100051814115510539F0A416B50609F09601F8
:103C20008F5F6901EDCFF12CBFEFCB16DB0609F4F6
:103C30004AC0F8014481F09055014111F12CD8019E
:103C400015965C90159716969C9116972E852115C2
:103C500009F406C1F11409F403C1511017C021E0A1
:103C600030E00C2C01C0220F0A94EAF7922B169632
:103C70009C9320919104309192042233310530F4C9
:103C800022E330E03093920420939104F30102C0C8
:103C9000EE0FFF1F8A95E2F7CF010197D801169624
:103CA0002C912817190679F48091F6049091F70465
:103CB000009709F44EC00E94DC15C39708F449C070
:103CC00081E0F8018483EF28FFEF8F1A9F0A095FD4
:103CD0001F4F28E08216910409F08ACF8E85811546
:103CE00009F411C1E11409F40EC10E94C10F9093AF
:103CF000F7048093F6048091F504883030F591E064
:103D0000980F9093F50498E0FE013996DE01119624
:103D100001900D929A95E1F73CE0839FC001112438
:103D20008B569B4F28E0FE013196DC0101900D92ED
:103D30002A95E1F72FEF3FEFDC0119963C932E9384
:103D400018971B96BC92AE921A976F96E2E10C946C
:103D50009C2D2091940480919304922FE0E0F0E058
:103D600037E061E0281709F44DC0222E312CD10133
:103D7000AA0FBB1FA757BB4F4D915C91588F4F8B1C
:103D8000349FD001359FB00D1124AF5ABB4F4D91D8
:103D90005C915E8F4D8F412C70E0512CAD8DBE8DAE
:103DA000A50DB11DA50DB11D4D915C915A8F498F87
:103DB000452B01F1D8010D90BC91A02DBC8FAB8F8C
:103DC00070E00BC0A1E0AF8FA98DBA8DA417B50725
:103DD00009F01F8EBF8D4B2A7F5FAB8DBC8DA70F67
:103DE000B11DA70FB11D4D915C914115510551F7C2
:103DF0005394D4CF411489F17515C0F421E0F80132
:103E00002483F80190939404E017F10709F45BCF41
:103E100090E0FC01EE0FFF1FE757FB4F918280827D
:103E2000019683709927809393044DCF4F89588DC5
:103E3000349FF001359FF00D1124EF5AFB4F64833E
:103E4000E017F107F1F2291302C09F5F9370A101FF
:103E50004F5F5F4F242F237085CFE0E0F0E0F7CF76
:103E6000292F30E051101FC0B30102C0660F771F29
:103E70008A95E2F7CB0101972817390771F0F12CE9
:103E8000C3010C2C01C0880F0A94EAF7982F909573
:103E9000F80186818923868316CF411589F3C401F1
:103EA0000E948E06ECCFA9010C2C02C055954795B7
:103EB0000A94E2F7C901019782239323892BF9F42D
:103EC00040FF1DC0D80112968D919C91892B91F0D5
:103ED00019821A820E94C10F9C838B8384E08D8398
:103EE0001E82F8018281938198878F83CE0101968B
:103EF0000E944716D80115961C92F52CC1CFB42FFD
:103F0000B170FB2EBDCF90919404809193049817CB
:103F100029F00E94D51CE11018CF47CE0E94981CB2
:103F20001092F7041092F6040E947D06F4CFA6E0EA
:103F3000B0E0EDE9FFE10C948E2D0E94C10F8C01E1
:103F400080916F03909170038017910779F0198227
:103F50001A820E94C10FBC0149815A8180E090E021
:103F60000E94861D1093700300936F032696E4E071
:103F70000C94AA2DA6E0B0E0E0ECFFE10C94902DAB
:103F80009C0190936C0380936B03211580E23807AA
:103F900038F4C9010E94FD132696E2E00C94AC2D82
:103FA00080EF89838A830E94C10F8160BC014981AF
:103FB0005A8181E091E00E94861DEECFA6E0B0E03C
:103FC000E4EEFFE10C948E2D8C0190936C038093B2
:103FD0006B03011580E21807B0F4802F0E941314C0
:103FE000C801805E9109089728F06BE275E1011520
:103FF000110511F46AE175E1C8010E941C032696BF
:10400000E4E00C94AA2D80EF89838A830E94C10F7B
:104010008160BC0149815A8181E090E00E94861D47
:10402000EECFCF93DF93D82FC92F0E94BA1F8D2FC9
:104030009C2F0E94DE1FDF91CF9108950F931F9355
:10404000CF93DF938C01862F6CEA73E00E94850F7B
:10405000892BA9F4C091AC03D091AD03209779F0DE
:10406000F8018281833051F4CE010E941120CE01EB
:104070000E941120CE010E94112001C0D8F7DF91CB
:10408000CF911F910F9108950F931F93CF93DF93BB
:104090008C01EB016CEA73E08C2F0E94850F892B59
:1040A00009F05AC0FE01FF27D80112968C91129791
:1040B000E852FD4F8130A9F415968C9182FD51C0D4
:1040C00080FF4FC082E080838091AE039091AF0368
:1040D0000097B9F48091AC039091AD030097E1F1A2
:1040E00010C08230B9F515968C9182FD28C080FDF4
:1040F0000BC083E080838091B0039091B10300975F
:1041000001F10E94BA1F28C084E080838091B2032D
:104110009091B3030097A9F78091AC039091AD0300
:10412000009711F10E9411208091AE039091AF038E
:10413000009739F78091AC039091AD03E2CF85E011
:1041400080838091AC039091AD03009729F00E9489
:104150001120F0CF86E08083DF91CF911F910F91E6
:10416000089581E08083B6CF8091AE039091AF0334
:10417000B5CF0F931F93CF93DF938C01EB016CEAC4
:1041800073E08C2F0E94850F892B71F4DD27C852B4
:10419000DD4F8881F801128218828330F1F048F4F3
:1041A000813059F0823081F0DF91CF911F910F91D2
:1041B00008958430B9F08530B9F78091AC039091BF
:1041C000AD03009789F306C08091AE039091AF03D1
:1041D000009799F30E94DE1FE7CF8091B003909182
:1041E000B103F6CF8091B2039091B303009791F79A
:1041F0002091AC033091AD038091AE039091AF0359
:1042000021153105F1F2009729F7C901E3CFACE0A0
:10421000B0E0EDE0F1E20C948A2D80E01CEF0DEFB0
:10422000FF24F3949091200320911F03291709F490
:1042300043C0E92FF0E0EF5DFC4F808187FBCC2489
:10424000C0F8D82EE894D7F89F5F9370909320031E
:1042500090911E039F5F90931E0387FD07C0DF822E
:1042600018870E94C10F23E0E22E06C0DF82088774
:104270000E94C10F32E0E32EBC0189879A87EB864A
:10428000FC864F8158858E2D91E00E94861DD98233
:10429000C11481F00A830E94C10FBC018B839C83EF
:1042A000ED821E8249815A818E2D90E00E94861DEA
:1042B00081E0B8CF1A83EFCF2C96E8E00C94A62DBE
:1042C000A4E2B0E0E6E6F1E20C94802DFE01319626
:1042D00088E1DF011D928A95E9F701E011E05BE0DA
:1042E000452E51E0552EEE24E394F12C1F01662457
:1042F0006394712CE1E18E2EE1E09E2EF801819114
:104300008F018F3F09F445C0F894E82FE295EF70D4
:10431000F0E021A18F70A30102C0440F551F8A95C0
:10432000E2F7CA01922F982B91A392A1809589233D
:1043300082A3789400C0EBE0F1E061019701209541
:1043400030956191D6018D919D916D016F3F09F47A
:1043500091C0A62FA295AF70A05EB0E04C9150E046
:104360006F7002C0559547956A95E2F740FD82C08F
:104370008E299F29D6019E938E938E169F0609F74C
:10438000F80182918F3F11F00E94FC05B0EABA95C6
:10439000F1F7EE0CFF1C4016510609F0AFCF48E1D3
:1043A00050E0B10180EE92E00E94E12D5C01892B8A
:1043B00041F088E1F101A0EEB2E001900D928A9502
:1043C000E1F70091F90210E0000F111F005D1C4F92
:1043D000A114B10409F451C081E08093DB010E9473
:1043E000C10F9093DA018093D90180916503811503
:1043F00009F49BC07E01E9E1EE0EF11C8CE0D701CF
:104400001D928A95E9F78091DC018A3008F057C047
:104410004BE95CE0B701C8010E94EF09811509F47E
:1044200072C047EC5CE0B701C8010E94EF0981153A
:1044300009F469C04CE15DE0B701C8010E94EF09D1
:10444000811509F460C01092DC018091F80290E0BF
:10445000880F991F4CE050E0B701805D9C4F0E948F
:10446000E12D21E02093D801892BF1F5A496E2E11A
:104470000C949C2D822393237DCF8091DB018115A9
:1044800009F4B3CF8091D9019091DA010E94DC1533
:10449000059708F4AACF4CE050E060EE72E0C80146
:1044A0000E94E12D892B41F08CE0E0EEF2E0D80192
:1044B00001900D928A95E1F71092DB0196CF8091E1
:1044C000D6019091D7010E94DC15843F914008F0FD
:1044D0009FCF8091D801811549F28CE0F7011192AC
:1044E0008A95E9F71092D801A091F802B0E0AA0FDE
:1044F000BB1FA05DBC4F8CE0FE01799601900D9230
:104500008A95E1F7B3CF8091DC018F3F39F40E94A7
:10451000C10F9093D7018093D601DBCF8F5F80933B
:10452000DC018A3008F491CFF2CF8CE0F801A1E0F1
:10453000B5E001900D928A95E1F76CE070E081E0C2
:1045400095E00E94BA068093000588E0EDE1F3E073
:10455000AEE0B5E001900D928A95E1F768E070E079
:104560008EE095E00E94BA0680930D05C090160576
:10457000D0901705E0901805F09019058091D201B0
:104580009091D301A091D401B091D501C816D9065C
:10459000EA06FB0609F46ACFC092D201D092D30199
:1045A000E092D401F092D5010E947B07C61AD70A87
:1045B000E80AF90AC0926703D0926803E09269039F
:1045C000F0926A0353CFCDB7DEB7AB970FB6F8942E
:1045D000DEBF0FBECDBF85B7806885BF85B7806859
:1045E00085BF84B7877F84BF0FB6F894A895809164
:1045F0006000886180936000109260000FBE80E8C8
:1046000090E00FB6F89480936100909361000FBE24
:104610008AEF95E09093C9018093C8010E94280613
:104620000E94BA0E0E94FE0E0E94AD080E94180958
:104630008091E20084608093E200789480914A0344
:10464000811599F08091E9001091EC008F70179519
:1046500011271795182B1092E9008091E80083FD2F
:104660000E94CB101F701093E90082E084BD93E09C
:1046700095BD9AEF97BD80936E00109267031092DC
:1046800068031092690310926A030E94B60B8111AD
:1046900002C00E943D0E8091D80080618093D800B6
:1046A0002AE12A95F1F700C08091D900182F1170E6
:1046B00080FD04C00E94AD0810924A031093650368
:1046C000109366031093110111110E944B2BEDE121
:1046D000F3E088E0DF011D928A95E9F780911101EE
:1046E00091E08927809327038091110190932A03F9
:1046F0008091110160E080E00E94610661E080E04D
:104700000E946106EFE8F1E03197F1F700C0000088
:1047100010E080912A03181708F490C080911101CD
:10472000811124C086E0E6E5F1E0DE01919601907A
:104730000D928A95E1F786E0FE01B196ABE0B1E01B
:1047400001900D928A95E1F78AE0EDE5F1E0DE0156
:10475000119601900D928A95E1F78AE0FE0131965B
:10476000A1E0B1E001900D928A95E1F780911101ED
:1047700090E0811101C096E09093F90286E0891BD8
:104780008093F80201E011E0BBE0EB2EB1E0FB2EDC
:10479000D8018D918D018F3F11F00E94FC05E0162C
:1047A000F106B1F70BE011E0F80181918F018F3F25
:1047B00011F00E94FC05F1E001311F07A9F788E123
:1047C000E0E3F3E0DF01282F1D922A95E9F7E0EE00
:1047D000F2E0DF011D928A95E9F780E090E00E9407
:1047E000162E853E9E4F21F40E94B60B811102C009
:1047F0000E944D0E82E090E00E940E2E8093FC02FB
:1048000084E090E00E94162E9093FB048093FA04BB
:104810000E946021EFE3FCE93197F1F700C000004E
:104820000E9460218091300380FF1AC06FEF7FEFFC
:1048300080E090E00E944A2E0E94730960E0812F80
:104840000E947206082F61E0812F0E947206E12FFC
:10485000F0E0E85DFC4F880F802B80831F5F59CF0D
:1048600083E090E00E940E2E0E9426038091650353
:10487000811103C082E30E94B92C82E191E0909300
:10488000720380937103A8E14A2E512C80914A0350
:10489000853049F480914A03853009F462C00E9452
:1048A00022100E94F8060E946021FDEF8F2EF2E098
:1048B0009F2E00E313E0D801F401219131918D91F5
:1048C0009D9143E0E531F40709F49BC028173907AF
:1048D000A1F3509165035BA7E0E36E2EE3E07E2E2B
:1048E000312CD301ED90FD903D01F401A190B190E8
:1048F0004F01AE14BF0471F1AE24BF24212CCC248F
:10490000C394D12CC5018C219D21892BD1F0FBA50D
:10491000F115B9F029823A820E94C10F9C838B83E2
:1049200021E02D8391E097012C213D21232B09F4D7
:1049300090E09E8349815A816B817C818D810E94A8
:10494000861D2394CC0CDD1C3AE02312DBCFF4014E
:10495000F292E29233944CE03412C3CF0E94870764
:1049600056C080914A03843011F11092FA02F0E4AB
:104970000FB6F894A895409260000FBEF0936000C7
:1049800083B7817F846083BF83B7816083BF78945E
:10499000889583B78E7F83BF0FB6F894A8958091D2
:1049A0006000886180936000109260000FBE80916B
:1049B000FB02811509F46ECF0E946021E0E3F3E071
:1049C00081919191892B29F423E0E834F207C1F712
:1049D00061CF80E189BD82E189BD09B400FEFDCFD0
:1049E0008091D8008F7D8093D8008091E000826014
:1049F0008093E0008091E00081FDFCCF0E942210B6
:104A000049CF2817390709F064CF0E94971F80917A
:104A10006503811111C0C12C80914F03811551F0A4
:104A200010924F0380911F038093200380911D03F8
:104A300080931E03D12CC6C0E090BB03F090BC0352
:104A4000E114F10471F16091190370911A038091DE
:104A50001B0390911C030E94A9078090150390905E
:104A60001603A0901703B0901803681579058A05FE
:104A70009B05B8F0C7010E94FD131092BC03109271
:104A8000BB031092190310921A0310921B03109289
:104A90001C03109215031092160310921703109224
:104AA0001803E090C403F090C503E114F104D1F0C1
:104AB0008091C6039091C7030E94DC15893C910543
:104AC00088F0C701992754E0880F991F5A95E1F79C
:104AD000FC01E353FC4F208122FD04C088539C4F0E
:104AE0000E945315809155018115F9F08091F604CB
:104AF0009091F7040097C9F00E94DC152091910471
:104B0000309192042817390780F490919404809191
:104B10009304981799F00E94D51C10929204109259
:104B200091041092F7041092F604809165038115A8
:104B300009F471CF0E940721C82E6ECF0E94981CE5
:104B40001092F7041092F6040E947D06EECF61E009
:104B50008D2D0E947206F82E60E08D2D0E94720647
:104B6000FF0C8F292D2D30E0D901A85DBC4FEC91B1
:104B70009E2F9370891729F1EE0FEE0FE82BEC931F
:104B8000809127038D0DEF70F0E0E058FE4FD901C2
:104B9000AB5DBC4F7D01B0809C91B90EB4E060E08C
:104BA000BB1624F4EDEFBE161CF461E00E94400633
:104BB0008B2DBB0C990B64E070E00E94B72DD701E0
:104BC0008C93D39480912A03D81608F280916503C0
:104BD000811519F00E940721C82AC1100E94870779
:104BE0000E94F80690912B03891721F080932B03E4
:104BF0000E947B0780914A03843009F047CE83E00E
:104C00008093E9008091E80082FF40CE8091E80027
:104C100090E085FF05C00E947C08811521F191E09C
:104C20008091E8008B778093E800911509F42ECEEF
:104C3000E0906D03F0906E03E981E114F10489F1D5
:104C4000EE3F09F052C08A81833020F085508330D6
:104C500008F04BC0EA81EE3008F047C0F0E0ED53B9
:104C6000F14D0C94CB2D40E2C42ED12CFE01319697
:104C70007F018091E80085FD0AC08091E8008B7774
:104C80008093E8000E947C08811599F3C8CF809139
:104C9000F100D7018D937D01B1E0CB1AD10849F71E
:104CA000BECFE43150F4E11551F0E150E33138F476
:104CB000F0E0EF52F14D0C94CB2DEE3F59F28FEF17
:104CC000898313C01A8289E08B830FC08A81823066
:104CD000A9F08330E1F0813091F70E947B070E94B8
:104CE000D12D6B837C838D839E8340E250E0BE0197
:104CF0006F5F7F4F82E00E949709C8CD87E290E006
:104D00000E940E2E1B821C821D828E83EECF80910C
:104D1000480390914903892B41F3FE013196D80154
:104D20008C9111969C910E5F1F4F928383833296D4
:104D3000B3E008341B0799F7D8CF8A81823009F095
:104D4000BECF6B817C818D819E810E94D12D87E2B7
:104D500090E00E942C2EC9CF4C816B818A810E94E9
:104D6000C70A9827892798279E838D83BECF2D81D8
:104D70003E813227232732274C816B818A810E9412
:104D80003F0AB3CF0E945B0DB0CF80E18A83ADCFE5
:104D90001A8288EF99CF8C81082F10E08D3108F0AE
:104DA000A4CFCA80DB80DC24CD24DC240C0D1D1DA7
:104DB0007E01E5E0EE0EF11C0C151D0509F495CF02
:104DC00080E0F8EFCF16D10428F4C601885F9C4F2D
:104DD0000E940E2ED7018D937D01BFEFCB1ADB0A07
:104DE000EBCF8091480390914903892B09F47DCF43
:104DF0008C81E82EF12C8D3108F077CF0A811B8150
:104E0000102701271027FE0131966F01EE0EFF1EBD
:104E1000EC14FD0409F469CF083F110540F4D601F4
:104E200014966C91C801885F9C4F0E942C2E0F5FD6
:104E30001F4FBFEFCB1ADB0AEBCF0E949B0A55CF67
:104E400082E0A4CF8C81082F10E08D3108F04DCF87
:104E5000CA80DB80DC24CD24DC240C0D1D1D7E01EA
:104E6000E5E0EE0EF11C0C151D0509F43ECF80E0C7
:104E7000F0EECF16F1E0DF0620F4C60188960E941E
:104E80000E2ED7018D937D01BFEFCB1ADB0AEBCF3E
:104E90008C81E82EF12C8D3108F027CF0A811B81FF
:104EA000102701271027003EE1E01E0708F01DCF64
:104EB00080EE91E0801B910B8E159F0508F415CFB5
:104EC0008091480390914903892BE1F54801F8E26C
:104ED0008F0E911C00FBCC24DD24C0F800FF0DC018
:104EE000C80187960E940E2E9D81892798278927C1
:104EF00081159C4711F48FEF8D83C701800F911F9F
:104F0000570180FF17C031E0A31AB10835E0632EC6
:104F1000712C6C0E7D1E6A0C7B1CC4018E0D9F1DB6
:104F20000E940E2ED3019C9181159C4719F48FEF9E
:104F3000F3018083FE013196EC0DFD1D2FEFCA14A5
:104F4000DB0430F0FE0131966F01EE0EFF1E1CC037
:104F50009481858181159C4711F42483258342E047
:104F6000C40ED11C3296EBCF003E51E0150738F449
:104F7000D60114966C91C80188960E942C2E0F5F62
:104F80001F4FBFEFCB1ADB0ACE14DF0469F7ADCE9B
:104F90008091480390914903892B09F4A6CE40E201
:104FA00050E0BE016F5F7F4F82E00E949709FFEFE4
:104FB00021EE34E0F15020403040E1F700C0000025
:104FC0003BCC88E0E8E6F1E0DE01919601900D929D
:104FD0008A95E1F7FE0132968FE1DF011D928A95F5
:104FE000E9F786E0898388E07F96DE0115960190D7
:104FF0000D928A95E1F779CE80EC898381E08A83EE
:105000001B821C8272CE8B819C81092E000CAA0B04
:10501000BB0B25E0880F991FAA1FBB1F2A95D1F74C
:10502000AC01BD01405E5F4F6F4F7F4F481759077E
:105030006A077B0708F459CE803CE1E09E07A10592
:10504000B10508F052CE413CF1E05F076105710502
:1050500020F040EC51E060E070E0481B590BBC01CF
:1050600061557C4FCE0101960E94D82D3ECE1B810A
:105070000C8140E0602F812F0E94F90A9827892730
:1050800098279A83898341E0602F812F0E94F90A33
:105090009827892798279C838B8327CE8E819F8191
:1050A0009827892798270E9419069C0141E08D8145
:1050B000811101C040E06C818B810E94690A15CE8C
:1050C0004AE150E06FEF70E0CE0107960E94F72DA5
:1050D000809148038983EA821B821C8281E08D8350
:1050E0001E8203CE81E090E090936E0380936D0367
:1050F00082E390E090932F0380932E030E94C10FD0
:1051000090932D0380932C03F0CDE114F10491F1E1
:10511000C0903003D09031030091320310913303DB
:1051200080912C0390912D030E94DC15853691050A
:1051300040F10C211D2100FF24C00E94C10F90935B
:105140002D0380932C0380912E0390912F030197C0
:1051500090932F0380932E03892B61F410926E039A
:1051600010926D0381E090E090934903809348038F
:10517000E12CF12C809148038983EA8280912E03EF
:10518000A3CD82E390E090932F0380932E03F2CF80
:105190001092490310924803A8CD40E250E06FEF0F
:1051A00070E0CE0101960E94F72D9FCDEB81E73094
:1051B00008F09BCDF0E0EC51F14D0C94CB2DFE01AD
:1051C00034968DE1DF011D928A95E9F788E08983A5
:1051D0008A837ACD8C819AE0F92E8E010F5D1F4F64
:1051E000F8012F2D11922A95E9F7B8010E94850F39
:1051F0008983F801DE01129601900D92FA94E1F78D
:1052000074CD1C818AE0FE013596DE0191960190F5
:105210000D928A95E1F789A19AA10E9419069AA395
:1052200089A38BA19CA10E9419069CA38BA38DA18D
:105230009EA10E9419069EA38DA38FA198A50E94EE
:10524000190698A78FA38FEF183068F43AE0139FE0
:10525000B0011124685E7D4F4AE050E0CE01819696
:105260000E94502E80E089830E9428063ECD2C812A
:105270006AE0CE018196DC01E62F1D92EA95E9F7FE
:10528000283008F046C0629FB001112468597D4F54
:105290004AE050E00E94FE2D80E089838AE0FE0112
:1052A000B196DE011296A3CE1C818AE0FE013596EE
:1052B000DE01919601900D928A95E1F789A59AA554
:1052C0000E9419069AA789A78FEF183068F4FAE0B0
:1052D0001F9FB001112468597D4F4AE050E0CE0174
:1052E00081960E94502E80E089830E94BA0EFDCCE8
:1052F0002C816AE0CE018196DC01E62F1D92EA95B1
:10530000E9F7283030F4629FB001112468547D4FD2
:10531000BFCF8FEFC2CF1C818AE0FE013596DE0140
:10532000919601900D928A95E1F78BA19CA10E9424
:1053300019069CA38BA38FEF183068F4FAE01F9F27
:10534000B001112468547D4F4AE050E0CE018196AF
:105350000E94502E80E089830E94FE0EC6CC789475
:105360001F921FB61F9211248F939F93AF93BF93E9
:105370008091F4019091F501A091F601B091F701AF
:105380000196A11DB11D8093F4019093F501A093A6
:10539000F601B093F701BF91AF919F918F911F904C
:1053A0001FBE1F9018951F920F920FB60F921124D7
:1053B0002F933F934F935F936F937F938F939F931D
:1053C000AF93BF93EF93FF938091E10082FF09C0F9
:1053D0008091E20082FF05C08091E1008B7F809385
:1053E000E1008091DA0080FF24C08091D80080FF26
:1053F00020C08091DA008E7F8093DA008091D900FE
:1054000080FF9BC080E189BD82E189BD09B400FEB7
:10541000FDCF81E080934A038091E201811109C0B0
:105420000E94AD080E9418098091E2008460809378
:10543000E2008091E10080FF17C08091E20080FFD0
:1054400013C08091E2008E7F8093E2008091E200A1
:1054500080618093E2008091D80080628093D800C0
:1054600019BC85E080934A038091E10084FF29C044
:105470008091E20084FF25C080E189BD82E189BD81
:1054800009B400FEFDCF8091D8008F7D8093D800B5
:105490008091E1008F7E8093E1008091E2008F7E19
:1054A0008093E2008091E20081608093E20080912D
:1054B000E101811509F447C084E080934A0380919B
:1054C0004A038091E10083FF27C08091E20083FFBF
:1054D00023C08091E100877F8093E10082E0809388
:1054E0004A031092E1018091E1008E7F8093E100F8
:1054F0008091E2008E7F8093E2008091E2008061E3
:105500008093E20042E060E080E00E94E808809141
:10551000F00088608093F000FF91EF91BF91AF9110
:105520009F918F917F916F915F914F913F912F91BB
:105530000F900FBE0F901F90189519BC10924A0340
:105540001092E20176CF8091E30087FF02C083E0F2
:10555000B4CF81E0B2CF1F920F920FB60F921124F9
:10556000EF92FF920F931F932F933F934F935F936D
:105570006F937F938F939F93AF93BF93CF93EF934B
:10558000FF9309EE10E0F8018081C091EC008F706C
:10559000C795CC27C795C82B108280EFE82EF12C39
:1055A000F7018081877F808378940E94CB10F80177
:1055B0001082F701808188608083CF70F801C083FA
:1055C000FF91EF91CF91BF91AF919F918F917F917B
:1055D0006F915F914F913F912F911F910F91FF908C
:1055E000EF900F900FBE0F901F901895FF920F93A2
:1055F0001F93CF93DF93182FEB011092BC0084EA26
:105600008093BC000E94C10F082FF92E8091BC002E
:1056100087FF28C08091B900887F883029F0809169
:10562000B900887F8031A1F51093BB0084E8809396
:10563000BC000E94C10F182F092F8091BC0087FF6A
:105640001FC02091B900287F80E090E0283199F0B8
:1056500081E090E0203411F480E090E09195819514
:10566000910909C0802F9F2D0E94DC15C817D9070A
:1056700068F68EEF9FEFCDB7DEB7E5E00C94A92D6D
:10568000812F902F0E94DC15C817D907B0F6F1CFF3
:105690008FEF9FEFF0CF1092B90088E48093B800AD
:1056A00008950F931F93CF93DF93EB018093BB007B
:1056B00084E88093BC000E94C10F182F092F8091AD
:1056C000BC0087FF11C02091B900287F81E090E0E5
:1056D000283211F480E090E0919581959109DF9155
:1056E000CF911F910F910895CF3FDC0741F3812F98
:1056F000902F0E94DC15C817D90708F78EEF9FEF8F
:10570000EECF0F931F93CF93DF93EC0184EC809344
:10571000BC000E94C10F182F092F8091BC0087FF89
:1057200008C08091BB0090E0DF91CF911F910F9155
:105730000895CF3FDC0789F3812F902F0E94DC155D
:10574000C817D90750F78EEF9FEFEECF0F931F9337
:10575000CF93DF93EC0184E88093BC000E94C10FDB
:10576000182F092F8091BC0087FF08C08091BB00D3
:1057700090E0DF91CF911F910F910895CF3FDC070B
:1057800089F3812F902F0E94DC15C817D90750F795
:105790008EEF9FEFEECFA0E0B0E0E1EDFBE20C94E6
:1057A000842D682E962E5A01690178010E94C10F3E
:1057B000782E892E0431110530F10F3F100731F199
:1057C000C80164E170E00E946C2D162F072F612F35
:1057D000702F862D0E94F62AEC01892BC9F0FFEF6D
:1057E000EF16FF06A1F3872D982D0E94DC15E81611
:1057F000F90668F784E98093BC00CE01CDB7DEB727
:10580000EEE00C94A02D11E000E0E1CF15E0FCCF1C
:10581000B701892D0E94512BEC018501CA0CDB1CBC
:105820000C151D0539F3209729F7B701F80181916F
:105830008F010E94512BEC01F3CFA0E0B0E0E3E236
:10584000FCE20C94842D982E862E6A015901780171
:105850000E94C10F3C010431110550F10F3F1007A8
:1058600051F1C80164E170E00E946C2D162F072FE2
:10587000612F702F892D0E94F62AEC01892BE9F007
:10588000FFEFEF16FF06A1F3C3010E94DC15E81637
:10589000F90670F784E98093BC00CE011C161D0642
:1058A00014F480E090E0CDB7DEB7EEE00C94A02DCC
:1058B00011E000E0DDCF15E0FCCFB701882D0E949C
:1058C000512BEC01892B31F7689490F80E94C10F9D
:1058D000782E892E84E1E816F10450F1EFEFEE16F0
:1058E000FE0649F1C70164E170E00E946C2D162F9D
:1058F000072F612F702F892D0E94F62AEC01892B2A
:10590000E1F400E010E0F1E0AF1AB1080A151B0560
:1059100000F5D7FDBFCFC7010E94812BEC0197FD99
:1059200004C0F601E00FF11F80830F5F1F4FEECF21
:1059300011E000E0DECF15E0FCCF8FEFE816F806AF
:10594000C1F2872D982D0E94DC15E816F90688F61D
:10595000D8CFD7FD9FCFC7010E94A62BEC0197FDA2
:1059600005C0CA0CDB1CF601808394CFCEEFDFEFBD
:1059700091CF8093BA0085EC8093BC0008951F926C
:105980000F920FB60F9211242F933F934F935F9373
:105990006F937F938F939F93AF93BF93CF93DF9337
:1059A000EF93FF938091B900982F987F9038F1F092
:1059B00038F4911509F48DC0903699F081E034C027
:1059C000887E883AD9F7E091FD04F0E0E150FB4F82
:1059D00080818093BB008091FD048F5F8093FD04E4
:1059E000EDCF1092FC041092FE04E8CF8091FC04ED
:1059F000811139C08091BB008093FD048091FD042A
:105A00008B3178F11092FD0480E091E09093FC04DA
:105A10004091FD0420911D0130911E014217130693
:105A200009F090E09093FE049091BC008295880F5D
:105A3000880F807C892B85688093BC00FF91EF9153
:105A4000DF91CF91BF91AF919F918F917F916F9196
:105A50005F914F913F912F910F900FBE0F901F902C
:105A6000189581E0D2CFE091FD04F0E08091BB0079
:105A7000E150FB4F80838091FD048F5F8093FD0494
:105A80008091FE04811509F499CFC0919001D091C5
:105A90009101A88188E0A802D0011124A45EBE4F24
:105AA0001696ED91FC911797309709F487CF1496CD
:105AB0002D913C9115972C0F3D1F11966D917C9166
:105AC00012976C0F7D1F13964C9113978C9109952B
:105AD00075CF1092BC0072CFAA1BBB1B51E107C04F
