:100000000C940C030C9444030C9444030C9444038C
:100010000C9444030C9444030C9444030C94440344
:100020000C9444030C9444030C941B160C945D151F
:100030000C947F230C9444030C9444030C944403C9
:100040000C9444030C9444030C9444030C94440314
:100050000C9444030C9416230C9444030C94440312
:100060000C9444030C9444030C9444030C944403F4
:100070000C9444030C9444030C9444030C944403E4
:100080000C9444030C9444030C9444030C944403D4
:100090000C94392D0C9444030C9444030C944403A5
:1000A0000C9444030C9444030C9444035E087408B9
:1000B0007B08B308C408D608E708FA083F094409D2
:1000C000340A340A340A4C09580962097A09B20917
:1000D000C409EA090C0AC20DC80DB60DBC0DCE0D3F
:1000E000D40DDA0D380EAC0E400E0A0E0E0E440E74
:1000F000110E470E520E1C0EA20E200E560E240E8E
:100100005A0E840E280E5E0E8E0E2E0E640E6E0E8D
:10011000150E4B0E180E4E0E330E690E7A0E9A0EF9
:100120009C0E060E3C0EB50E750F750F85108510D2
:10013000AE0F851085108510CA0F3E104F104F105E
:1001400069139013451590134515DC13FF134515DE
:1001500000151015FD377A585A000004E6D6B4464B
:100160000200210116000000742FE5A3E0046201E3
:100170007E5D003D8889C65436C3174FE4FA894432
:10018000763B12A048FAFADCD39959CD64C15EA837
:10019000995426F69E0764E9217C77141777F24B71
:1001A000B0BFA4477D73969FE27353C8F267EBDF3D
:1001B000FE4D08C06D52C4AFEAAF12A87DC5A99D1F
:1001C000026643F90262E4655EE21E39BA871CA04A
:1001D0007DC67A41D48B5DF437C3D0F4D93A2C1E56
:1001E00045AE1FECB28F655771FB8520CBC5B86358
:1001F000A12A9A1021F9166242671C7EEA77F8C19B
:10020000EC005EC7C7AA1CE03B354432060367E832
:10021000C0A97F7BE0F5BFB9E34EA362A755F750B5
:1002200060D718D610B851AABC810D93FE0C52B0FD
:100230000FC252C210C25900F1C59BBBAAFB3F7747
:100240002584483BA5FB3CD984DAECFBE403102C65
:100250006A2B66E7BA6F10FB41447D4A20CCA6C2E8
:1002600004765A0F6E0E55FA4147A4271DAF171496
:1002700093B341BCE97396717347C45306621A285D
:10028000617E0D30B4E39A883C3919F3F717BD8FBE
:100290007F5D9A42069F1F93F3447EEDC3B6AD3057
:1002A000EED78346C2F1AF48052796AED5E53A575B
:1002B00074F7508F733B3653615D5E77B67A8394E3
:1002C000952D426638DAB1A0AA8962EBAEE17AF5E3
:1002D00067F8B6481065A2B72CBF1C97CB4D8F109E
:1002E0005C3A313C1E2DEFDA6873C7882F359DE3E9
:1002F000000000000468550F7DB6248E00019A03AB
:10030000E30800004624D1F2B1C467FB02000000FC
:100310000004595A05010980A101850319012AB772
:1003200000150126B700950175108100C0050C0964
:1003300001A101850419012AA002150126A0029538
:100340000175108100C00660FF0961A101096215F5
:100350000026FF009520750881020963150026FF1D
:1003600000952075089102C005010906A101050745
:1003700019E029E71500250195087501810295010D
:10038000750881010507190029FF150026FF009552
:100390000675088100050819012905150025019534
:1003A0000575019102950175039101C009025B0079
:1003B000030100A0FA090400000103010100092162
:1003C000110100012244000705810308000109040E
:1003D0000100020300000009211101000122220096
:1003E000070582032000010705030320000109041B
:1003F0000200010300000009211101000122320066
:1004000007058403200001120100020000000834E7
:100410001278560001010203011C03760069006195
:10042000006C003A0066003600340063003200625F
:10043000003300630000001403740075007500763B
:100440000065006900740077006F0000001C035312
:100450000061006E00740065007200690064006154
:100460000068006C006900610000000403090400DA
:10047000000000000000000000000000000000007C
:10048000000000000000000000000000000000006C
:100490000000007E0F00D4FFFFFFC70000007800BF
:1004A000000000000000002A2B28000000000000CF
:1004B0000000000000000000000029000000002CE7
:1004C0001E3420212224342627252E362D37382786
:1004D0001E1F202122232425263333362E37381F92
:1004E0000405060708090A0B0C0D0E0F1011121354
:1004F0001415161718191A1B1C1D2F3130232D35F2
:100500000405060708090A0B0C0D0E0F1011121333
:100510001415161718191A1B1C1D2F3130354C29AC
:10052000003A003B003C003D0000000000000000DD
:1005300000000035001E001F0020002100220023C3
:10054000000000000000002B0014001A0008001535
:100550000017001C00000000000000390004001615
:1005600000070009000A000B00000000000000E185
:100570000031001D001B00060019000500000000EE
:10058000000000E000E300E2002C00000000004654
:10059000000000000000003E003F0040004100421B
:1005A000004300440045004B004E00240025002677
:1005B0000027002D002E002A00280049004A001CB8
:1005C0000018000C00120013002F0030004C004DEA
:1005D0000000000B000D000E000F0033003400255A
:1005E0000200000000000005001100100036003776
:1005F0000038005200E100000000002C00E600E39B
:1006000000E000500051004F00000000000000A971
:1006100000AA00000000000011241FBECFEFDAE0A6
:10062000DEBFCDBF04B603FE18C0809102059091D5
:100630000305A0910405B09105058730904BA740B4
:10064000B04B59F410920205109203051092040564
:1006500010920505E0E0F8E3099525E0AEEBB1E086
:1006600001C01D92A230B207E1F711E0A0E0B1E0B5
:10067000EEECFDE502C005900D92AE3BB107D9F757
:100680000E9446030C94E52E0C940000A1E3B0E018
:10069000ECE4F3E00C94FD2D85B7806885BF85B749
:1006A000806885BF84B7877F84BF0FB6F894A8950C
:1006B00080916000886180936000109260000FBE9E
:1006C00090E080E80FB6F894809361009093610009
:1006D0000FBE85E297E19093BF018093BE010E9417
:1006E0009C200E9458200E94E41F0E94A1150E9495
:1006F000C0158091E20084608093E200789480913C
:1007000032028823A1F01091E9001F709091EC0053
:10071000892F817090FD80E8182B1092E90080915C
:10072000E80083FD0E9486121F701093E90082E0AA
:1007300084BD93E095BD9AEF97BD80936E001092B3
:10074000C0011092C1011092C2011092C3010E9417
:10075000F820811102C00E94E8200E94391980937C
:1007600010010E94391981110E94D62B909110011D
:1007700081E098279093FF01282F291B2093C50122
:100780009091100180930002909110018093C40118
:1007900084988C9A85988D9A8FE891E00197F1F76B
:1007A00000C0000030910002E1E0F2E020E02317F9
:1007B00061F08FB1829581707D9B02C092E001C093
:1007C00090E0892B81932F5FF2CF809110018111EE
:1007D00028C086E0ECE4F1E0DE01919601900D92F4
:1007E0008A95E1F7FE01B196AAE0B1E0CE018796C5
:1007F00021912D938E179F07D9F78AE0E2E5F1E06A
:10080000DE01119601900D928A95E1F7FE01319675
:10081000A0E0B1E0CE010B9621912D938E179F079A
:10082000D9F780911001882311F090E001C096E083
:100830009093DF0186E0891B8093DE0100E011E0E8
:100840006AE0E62E61E0F62ED8018D918D018F3F92
:1008500011F00E945C19E016F106B1F70AE011E010
:10086000F80181918F018F3F11F00E945C19F1E036
:1008700000311F07A9F788E1E8E0F2E0DF01282F47
:100880001D922A95E9F7E6ECF1E0DF011D928A95C9
:10089000E9F780E090E00E94552E863E9E4F21F4BD
:1008A0000E94F820811102C00E94731B82E090E038
:1008B0000E944D2E8093830484E090E00E94552E88
:1008C00090933F0280933E020E941A1CEFE3FCE9E2
:1008D0003197F1F700C000000E941A1C80910802B5
:1008E00080FF08C06FEF7FEF80E090E00E94892ECC
:1008F0000E94F22283E090E00E944D2E0E94D127B8
:100900000E943919811103C082E30E94332D81E1D5
:1009100091E09093AB048093AA048E010F5F1F4F68
:1009200080913202853009F048C040E1E42E52E166
:10093000F52E80913202853009F03BC08091320261
:10094000843021F11092AE0428E130E040E40FB68B
:10095000F894A895209360000FBE4093600083B781
:10096000817F846083BF83B7816083BF78948895DB
:1009700083B78E7F83BF0FB6F894A89580916000EF
:10098000886180936000109260000FBE80913102F8
:10099000882309F4CECF0E941A1CE8E0F2E081918E
:1009A0009191892B09F067C582E0E032F807B9F729
:1009B000C0CF0E942C280E9419240E941A1C21EEEC
:1009C000C22E21E0D22E38E0E32E32E0F32ED70102
:1009D000F601219131918D919D918227932721E0FC
:1009E000E93FF20719F0892BA1F305C0892B19F40F
:1009F0000E94F61B49C00E94391989AB98E0492E24
:100A000092E0592E312CD2018D909D902D01F6014E
:100A100060807180682479246114710461F1212C53
:100A2000AA24A394B12CC3018A219B21892BD1F044
:100A3000F9A9FF23B9F02BA63CA60E9473239EA719
:100A40008DA721E02FA791E094012A213B21232BA0
:100A500009F490E098AB4BA55CA56DA57EA58FA58C
:100A60000E94BC292394AA0CBB1C3AE02312DBCFC2
:100A7000D6018D929C923394B2E0CB0ED11CECE067
:100A80003E12C1CF0E9473190E943919882309F4BC
:100A900086C080919D0490919E04892B89F160917C
:100AA00092047091930480919404909195040E9413
:100AB0003C2380908E0490908F04A0909004B0907E
:100AC0009104681579058A059B05D0F080919D04F5
:100AD00090919E040E94A22910929E0410929D045F
:100AE0001092920410929304109294041092950420
:100AF00010928E0410928F04109290041092910420
:100B00008091A6049091A704892BE9F08091F901C6
:100B10009091FA010E945823893C9105A0F08091A0
:100B2000A6049091A7049927A4E0880F991FAA957D
:100B3000E1F7FC01EC57FD4F208122FD04C08158F4
:100B40009D4F0E944D2480914B01882341F180915B
:100B5000800490918104009711F10E945823209104
:100B6000DA033091DB0328173907C8F490917E042B
:100B700080917F04981759F00E94341F1092DB0374
:100B80001092DA03109281041092800408C00E942F
:100B9000D61E10928104109280040E94141FA12C72
:100BA000912C80910002A81608F066C08A2D90E072
:100BB000EFB1E295E1707D9B02C022E001C020E030
:100BC0006E2F622BDC01AF5FBD4FEC912E2F237097
:100BD00030E0462F062E000C550B2417350709F47C
:100BE00049C0EE0FEE0FE62BEC93B090FF01BA0C6C
:100BF000EF70F0E0EC59FE4F9C0123503E4F69012D
:100C00009081D9018C91890F8C93843084F0EB2DE5
:100C1000F0E0E550FE4F80818F5F80830E9439199C
:100C2000882339F060E08B2D0E94112102C020E062
:100C300001C021E0F60180818D3F84F4EB2DF0E0CE
:100C4000E550FE4F8081815080830E9439198823AE
:100C500021F061E08B2D0E94112121E0D6018C91C1
:100C6000082E000C990B64E070E00E94A72EF6019C
:100C70008083922AA39495CF91100E94161B0E9404
:100C8000192490910302891721F0809303020E9496
:100C9000672380913202843009F042CE83E0809352
:100CA000E9008091E80082FF3BCE8091E80085FF5B
:100CB00024C00E94F21681111EC0F0E2CF2ED12C6A
:100CC0009E012F5F3F4F590109C08091F100D5016E
:100CD0008D935D01B1E0CB1AD10869F08091E800F5
:100CE00085FDF3CF8091E8008B778093E8000E9428
:100CF000F216882399F391E001C090E08091E8001A
:100D00008B778093E800992309F40ACEC0902002E3
:100D1000D09021028981C114D10461F08E3F09F085
:100D2000A3C38A81833008F4BDC18550833008F0A5
:100D30009BC3B8C18B3009F49CC110F5853009F410
:100D400071C0B0F48230C1F130F4813009F08AC34F
:100D50001A8289E0B5C2833009F457C0843009F0A3
:100D600081C34C816B818A810E94D31D9D83A0C366
:100D7000873009F477C308F075C30E94072674C34F
:100D8000803109F4BAC060F48D3009F458C008F419
:100D900054C08E3009F457C08F3009F47FC062C34D
:100DA000823109F4B0C008F4ABC0833109F4D4C077
:100DB0008E3F09F477C156C38A81823009F471C32A
:100DC000833051F0813009F04DC30E9467239B832B
:100DD0008C837D836E8348C380918C0490918D04B5
:100DE000892B09F441C3FE013196CE014996D70102
:100DF0002C9111963C91B2E0EB0EF11C32832383CF
:100E00003296E817F90799F72FC38A81823009F0E3
:100E100029C36B817C818D819E810E94C12E0E949D
:100E2000C42022C32D813E813227232732274C81C3
:100E30006B818A810E94B11D17C380E162C081E08D
:100E40008A838FEE3DC2EA80FB80FE24EF24FE24DD
:100E5000AC80B12CEDE1AE16B10408F005C3680119
:100E6000C7018F5E9D4F9601201B310B2A153B0554
:100E700008F0FAC2FFEEEF16F1E0FF0630F40E9430
:100E80004D2ED60114968C9302C0F6011482FFEF0A
:100E9000EF1AFF0A2FEFC21AD20AE2CF80918C0418
:100EA00090918D04892B09F4DFC2EA80FB80FE2437
:100EB000EF24FE24CC80D12C3DE1C316D10408F0F0
:100EC000D3C25801C7018F5E9D4F9501201B310B86
:100ED0002C153D0508F0C8C24FEEE41641E0F406BB
:100EE00028F4D50114966C910E946B2EBFEFEB1A7B
:100EF000FB0AEFEFAE1ABE0AE5CF0E94B525B4C2D9
:100F000081E08A83B1C2EA80FB80FE24EF24FE24C4
:100F1000AC80B12CFDE1AF16B10408F0A5C26801A8
:100F2000C70189969601201B310B2A153B0508F055
:100F30009BC220EFE216F10430F40E944D2ED60140
:100F400014968C9302C0F6011482FFEFEF1AFF0A89
:100F50002FEFC21AD20AE4CFEA80FB80FE24EF24EE
:100F6000FE24AC80B12C3DE1A316B10408F07CC294
:100F7000370149E2640E711C80EFE816F10408F0B5
:100F800073C280EF90E08E199F098A159B0508F4C3
:100F90006BC280918C0490918D04892B11F06801B3
:100FA0005FC0E0FE0FC0C70188960E944D2E90E002
:100FB000982F88272D81822B81159C4731F48FEF44
:100FC0008D8303C0C12CD12C03C0CC24C394D12C5D
:100FD000C7018A0D9B1D450180FF1BC0B1E08B1A24
:100FE000910855E0452E512C4C0E5D1E480C591CA5
:100FF000C3018A0D9B1D0E944D2EF201208130E01D
:10100000322F2227282B21153C4719F48FEFD201CC
:101010008C93F801EC0DFD1D2FEFCF01801B910B80
:101020008815990508F0BBCF848190E0982F882718
:101030003581832B81159C4711F4248325833296B7
:10104000ECCFE0EFEE16F10428F4D60114966C9183
:101050000E946B2EBFEFEB1AFB0AEFEFCE1ADE0AEF
:10106000C70189969601201B310B2A153B0548F3D1
:10107000FBC180918C0490918D04892B09F4F4C1FB
:1010800040E250E0B80182E00E94B422FFEF21EE7E
:1010900034E0F15020403040E1F700C000000E94F1
:1010A000F222E2C1EA818E2F90E08E30910508F0A5
:1010B000DBC1FC01EA5AFF4F0C94BB2E88E0ECE543
:1010C000F1E0DE01919601900D928A95E1F780E2C0
:1010D000D8011D928A95E9F786E0898388E0FE01B0
:1010E000B196DE01159693C180EC898381E08A83F5
:1010F0001B821C82B9C18C8190E0982F88272B819C
:10110000820F911D092E000CAA0BBB0B35E0880F36
:10111000991FAA1FBB1F3A95D1F7AC01BD01405ED4
:101120005F4F6F4F7F4F481759076A077B0708F4D7
:101130009BC1803CE1E09E07A105B10508F094C188
:10114000413CF1E05F076105710520F040EC51E0A2
:1011500060E070E0481B590BBC016C5A7E4FC8011F
:101160000E94342E81C1FB80EC8040E06E2D8F2DDB
:101170000E94AD2699838A8341E06E2D8F2D0E94B7
:10118000AD269B838C8370C18E819F819827892790
:1011900098270E94B42041E02D81211101C040E038
:1011A0009C016C818B810E94DA255EC140E250E097
:1011B0006FEF70E0C8010E94DE2E80918C0489835D
:1011C000CA821B821C8281E08D831E824DC181E018
:1011D00090E0909321028093200282E390E090932C
:1011E0000702809306020E94732390930502809366
:1011F00004023AC1CD28D1F120910A0230910B02AC
:10120000809108029091090282239323282F217054
:10121000F22E80910402909105020E945823853697
:101220009105F0F0FF20E1F00E94732390930502F6
:101230008093040280910602909107020197909397
:10124000070280930602892B89F4109221021092E2
:10125000200281E090E090938D0480938C0406C07E
:1012600082E390E0909307028093060280918C04C1
:101270008983809120028A838091060221C0109286
:101280008D0410928C04F0C040E250E06FEF70E0EB
:10129000C8010E94DE2EE8C0EB818E2F90E08730DF
:1012A000910508F0E1C0FC01EC59FF4F0C94BB2EF6
:1012B00080E2D8011D928A95E9F788E089838A83C4
:1012C0008B83D2C08C819AE0F92E6E01B1E2CB0EF5
:1012D000D11CF6012F2D11922A95E9F7B6010E9433
:1012E000C5258983F601DE01129601900D92FA94CC
:1012F000E1F7BAC0FC808AE0FE013596DE019196E6
:1013000001900D928A95E1F789A19AA10E94B420DB
:101310009AA389A38BA19CA10E94B4209CA38BA318
:101320008DA19EA10E94B4209EA38DA38FA198A5FC
:101330000E94B42098A78FA337E03F1570F04AE0D1
:10134000F49EB00111246F5D7E4F4AE050E0CE0163
:1013500081960E948F2E80E001C08FEF89830E94CA
:101360009C2082C06C81CE0181962AE0DC011D9216
:101370002A95E9F7683008F043C0BAE06B9FB001E6
:1013800011246F587E4F36C0FC808AE0FE013596EE
:10139000DE01919601900D928A95E1F789A59AA5B3
:1013A0000E94B4209AA789A7E7E0EF1570F0FAE051
:1013B000FF9EB00111246F587E4F4AE050E0CE01ED
:1013C00081960E948F2E80E001C08FEF89830E945A
:1013D00058204AC06C81CE0181962AE0DC011D9222
:1013E0002A95E9F7683060F4BAE06B9FB0011124E8
:1013F0006F537E4F4AE050E00E943D2E80E001C0D6
:101400008FEF89838AE0FE01B196DE01129601908A
:101410000D928A95E1F728C0FC808AE0FE0135969E
:10142000DE01919601900D928A95E1F78BA19CA126
:101430000E94B4209CA38BA3E7E0EF1570F0FAE0C4
:10144000FF9EB00111246F537E4F4AE050E0CE0161
:1014500081960E948F2E80E001C08FEF89830E94C9
:10146000E41F02C08FEF898340E250E0B80182E0C0
:101470000E94B42255CAE9BCF9BC09B400FEFDCFF4
:101480008091D8008F7D8093D8008091E0008260A9
:101490008093E0008091E00081FDFCCF0E942C2829
:1014A00048CA88E290E00E944D2E1B821C821D8259
:1014B0008E83DACFACE0B0E0E0E6FAE00C94FD2DEC
:1014C000DC0114962C91222309F487C67C0161E08B
:1014D0000E942F298C01F7018581882319F18091C1
:1014E000A6049091A7040097E9F008171907D1F016
:1014F000992754E0880F991F5A95E1F7FC01EC57A2
:10150000FD4F20812460208381589D4FDC010D9385
:101510001C930E944D241092A40461E0C7010E9414
:101520002F298C01F7013580332009F4BBC0C80195
:1015300097578038910508F001C1D02EFFE0F017D1
:1015400008F462C48FEF93E00E944D2E81115CC4B9
:1015500001E112E0DD2071F0011524E0120709F429
:1015600053C4C8010E944D2E811101C0DA940F5F4F
:101570001F4FF0CF19821A821B821C82AA24AA94C0
:1015800068013FEFC31AD30AC8010E944D2E898318
:101590001A82882309F438C4813009F07EC04801DA
:1015A00042E0840E911CC6010E944D2EB82E8A8303
:1015B000882309F429C48FEF8B0D833060F4680110
:1015C00053E0C50ED11CC4010E944D2E8B838111A6
:1015D00064C08601D5CF8BEF8B0D833078F5380151
:1015E00083E0680E711CC4010E944D2E8B83811113
:1015F00002C06301EECF680194E0C90ED11CC301A3
:101600000E944D2E8C83882321F32B813C81213035
:10161000AFEF3A0718F0922F80E001C0C901B6E0A1
:10162000BB1631F0E7E0BE1631F00E940522D1CFA3
:101630000E94E021CECF0E945821CBCFF4E0BF160C
:1016400011F06401C6CFC4010E944D2EB82E68016E
:1016500024E0C20ED11CC80103960E944D2EBB206F
:1016600009F4D2C3882309F4CFC3282F30E02150D6
:101670003109A29EA001A39E500D11248B2D90E054
:101680000197840F951F019708F4A3CFAFE9BFE03E
:101690001197F1F700C00000F6CFCE0101960E942D
:1016A000DA1197CF6801E7E5DE1AFFEFCF16D10414
:1016B00011F008F05DC065E772E08C2D0E94C52531
:1016C000892BB9F5C60144E0880F991F4A95E1F7C7
:1016D000FC01E158FD4F22812130C9F420917502AF
:1016E00030917602232B29F12091770230917802F4
:1016F000232BF9F02091790230917A02232BC9F43F
:1017000020917B0230917C02232B49F012C02230C1
:1017100081F42091790230917A02232B51F0FC015F
:10172000EC57FD4F20812E7F208381589D4F0E94D2
:101730004D24D70115963C903320D9F00E35BCE7E7
:101740001B0761F00F35ECE71E0761F00D35FCE774
:101750001F0779F480911901811104C081E0809301
:10176000190152C31092190180E00E9426254CC332
:10177000312C80911901811108C0C80197558F3F04
:10178000910509F008F477C1E4C1480120EE821AFE
:101790009108209043028091A504282A38E08316FE
:1017A000910480F498012770332781E090E001C014
:1017B000880F2A95EAF7332011F0282A18C080955F
:1017C000282215C0332009F416C110932302009378
:1017D00022020E946723609396047093970480937B
:1017E00098049093990410929E0410929D04D7013E
:1017F0008D919C910E945B2721E030E0F90102C0AD
:10180000EE0FFF1F8A95E2F7FC87EB8720919F047C
:101810003091A00438872F834091220250912302F7
:101820005A8749871D82432C512C5D81E52FF0E0BA
:10183000EE0FFF1FE05BFC4FC080D180C114D104CC
:1018400009F4F0C0211005C0D60112968C918111C7
:10185000CEC0F601838190E02B853C8582239323C3
:10186000892B09F4C4C08085982F977009F487E00C
:1018700038E08316910440F4332019F081FD09C04B
:10188000B6C082FD06C0B3C0332009F4B0C080FFEB
:10189000AEC0D601AD90BC900A151B0519F43320DB
:1018A00009F4A5C0EF81F885CE16DF0609F49FC0C4
:1018B000D6011D96ED91FC911E97309721F0808105
:1018C000882309F494C0622DC6010E9495258823BF
:1018D00009F48DC00A151B0511F4320102C0612CF8
:1018E000712CB62DB170BE8381E0A114B10441F01A
:1018F000B11106C0E985FA85AE16BF0609F080E091
:1019000080FF75C080E00E942625D092A004C0927E
:101910009F0481E080939C04D60115968C9180935E
:101920009A04BE81B11113C0AB2889F0F601808101
:1019300091819C0124503109213A310530F4682FFE
:1019400084E894E00E94A82302C00E946828D6017F
:101950001696AD90BC901797C5019A9581159F4139
:1019600010F4E0EEBE2255245394C50101978F3345
:101970009E4708F0512CD6011996ED91FC911A97CB
:10198000309739F01B966D917C911C9781E00995F9
:101990005822552029F1F601868197810E947529E8
:1019A00080939B04C501F8E08F16910418F40E94FF
:1019B000E02416C00497813A910530F46A2D84E83A
:1019C00094E00E94B5230EC00E94D4278FE39CE9C7
:1019D0000197F1F700C000008A2D0E94942802C0F0
:1019E0000E94D42791E0692660FEE8C1C6CEAD8191
:1019F000AF5FAD831ACF8091220290912302081726
:101A0000190781F410922302109222021092960478
:101A100010929704109298041092990410929E04C8
:101A200010929D0480919F049091A004009709F466
:101A3000A4CEB8E08B16910438F4622D0E9495254F
:101A400081119BCE81E014C0FC01208131810217FD
:101A5000130729F4311006C010929C0408C03320EB
:101A600009F48BCEDC0118968C9185FD86CE80E042
:101A70000E94262582CE5801BB24C50124E0880F90
:101A8000991F2A95E1F7FC01E158FD4F6F01D7013D
:101A900015962C911597FC01EC57FD4F5F01808145
:101AA00020FB80F9808315968C918823A1F10E94F8
:101AB00073239093FA018093F901D60112968C91C9
:101AC00012978F5F12968C9312979091A404809135
:101AD000A504892B13968C93139780914302149637
:101AE0008C93149716964D915C9117971E966D9155
:101AF0007C911F97C6010E942A24F501808181FFF5
:101B000003C090E080E002C0902F812F9093A60444
:101B10008093A7041EC0D6011C964D915C911D9721
:101B20001E966D917C911F97C6010E942A24F50193
:101B3000808181FF0EC0C6010E9430248091A604DE
:101B40009091A7040817190721F41092A704109286
:101B5000A6044801A12CB12CF801E851FC47E7305C
:101B6000F10588F5E559FF4F0C94BB2E06E221EEF6
:101B700041EE6AE17CE723C007E225EE45EE6BE12A
:101B80007CE71DC006E221EE40EE68E17CE717C06D
:101B900007E225EE44EE69E17CE711C006E221EEA2
:101BA00042EE6CE17CE70BC007E225EE46EE6DE10C
:101BB0007CE705C008E221E045EE6EE17CE7C70165
:101BC0000E94772421C1D70115968C91882309F4AE
:101BD0002EC11092A304C8019057839708F0DBC070
:101BE00084E090E00E94552E90933F0280933E0245
:101BF000F801E150F047E232F10520F4EE58FF4FD2
:101C00000C94BB2E80913E028160ACC080913F025B
:101C10008860B4C080913E028260A4C080913E0280
:101C200020C080913E0288609DC080913F021EC00E
:101C300080913F028260A2C080913E02806192C08A
:101C400080913E0280628EC080913E0280648AC094
:101C50000E942C2880913E02806884C080913E02C0
:101C6000886084607FC080913F028260816086C00E
:101C700080913E028E7F76C080913F02877F7EC03A
:101C800080913E028D7F6EC080913E0220C0809187
:101C90003E02877F67C080913F021EC080913F0255
:101CA0008D7F6CC080913E028F7E5CC080913E0231
:101CB0008F7D58C080913E028F7B54C00E942C289B
:101CC00080913E028F774EC080913E02877F8B7F4E
:101CD00049C080913F028D7F8E7F50C080913E022F
:101CE00082FB222720F991E0922790FB82F990FB5A
:101CF00083F938C080913F02982F909591708E7F24
:101D0000892B90FB81F93AC080913E0286FB222705
:101D100020F991E0922790FB86F924C00E942C289C
:101D200080913E0287FB222720F991E0922790FBC9
:101D300087F918C061E001C060E08EE090E00E9489
:101D40006B2E1EC080913E0284FB222720F991E079
:101D5000922790FB84F906C080913E02982F9095BF
:101D600090FB80F980933E020BC080913F0283FB81
:101D7000222720F991E0922790FB83F980933F027C
:101D800060913E0270913F0284E090E00E94892EB3
:101D90000E942C2839C00631BCE71B0791F48091C2
:101DA000A5048A7A91E009F490E0909324028111CD
:101DB0003CC069E284E894E00E94B5230E94D427E5
:101DC00023C00737FCE71F0709F4F6C108372CE7E3
:101DD000120709F4F5C10330BCE71B0709F4D7C1AA
:101DE00008F0C7C10115FCE71F0709F0BDC10E943B
:101DF0002C288FEF94E3ACE081509040A040E1F7B5
:101E000000C000000E94F22280914002877009F415
:101E1000E4C1F7018581882309F4DFC180913F0285
:101E200082FFDBC10E94BF11D8C165E3C3CF063179
:101E3000ECE71E0709F48CC10737BCE71B0709F460
:101E4000BDC10837ECE71E0709F4BEC1D7011696DD
:101E50008D919C9117970097C9F4D70115968C9195
:101E600015970D911C91882349F0C8010E944C27B9
:101E7000D82E682FC8010E94782704C0C8010E948C
:101E80005B27D82EB8018D2D0E94CD190E94FC1918
:101E90008C01F701C580809140028770B1F0CC20A1
:101EA000A1F0812F807F803421F080E2800F883084
:101EB00060F080913F0282FF08C00E94BF118091B4
:101EC00040028770DD24D3948111D12CB12EB294BD
:101ED0008FE0B8228B2D90E08C30910508F015C171
:101EE000FC01EC56FF4F0C94BB2E812F807F1F709E
:101EF000882311F01295107FCC20B9F0112309F43A
:101F0000F2C080E2800F883010F0011106C090917D
:101F1000A504192B1093A50405C09091A404192BB6
:101F20001093A4040E94D427DEC0802F0E9468284A
:101F3000112309F4EAC080E2800F883010F001110B
:101F400004C0812F0E94EF1B06C010959091A4043D
:101F500019231093A4040E94D427D7C0812F8695FB
:101F60008695837019F0813059F0CFC0CC2019F0DC
:101F7000C801937002C080E090E00E94F423CBC0BF
:101F8000CC2019F0C801937002C080E090E00E945C
:101F9000CF23C1C0812F8370A9F5C110BAC0402FD3
:101FA000429546954770440F440F802F8F7090E004
:101FB0009C01042E01C0220F0A94EAF704FF08C016
:101FC0008FE090E001C0880F4A95EAF7809501C044
:101FD00080E0169516951370123069F088F4909190
:101FE0004402113019F0822B892302C0922B892BD5
:101FF0000E94D1278EC0822B909144028927F8CF6E
:10200000822BF6CFCC2019F0812F817001C08695EC
:10201000882309F47EC0402F429546954770440FAF
:10202000440F802F8F7090E09C01042E01C0220F7E
:102030000A94EAF704FF08C08FE090E001C0880F1F
:102040004A95EAF7809501C080E0169516951370C1
:10205000123059F078F49091E001113019F0822B90
:10206000892309C0922B892B06C0822B9091E00115
:10207000892701C0822B0E9493274BC01F70CC2060
:1020800039F0812F0E94C527802F0E945E2841C011
:10209000802F0E945728812F0E94B8273AC0023F04
:1020A00059F0033F81F0013FE1F4CC2039F0812F5A
:1020B0008F710E94C52729C0CC20C9F3812F8F7151
:1020C0000E94B82722C0CC2041F01F7181E0012E70
:1020D00001C0880F0A94EAF701C080E00E949327AC
:1020E00014C0CC2021F0802F0E9494280EC0093308
:1020F00049F4FFEF27EE33E0F15020403040E1F7A4
:1021000000C00000802F0E94682888EF8B0D82306D
:1021100010F40E941924DD20B1F08091400280FD6E
:1021200012C0D70115961C928695869586950E94B9
:10213000C527C7010E945A0A80914002869586955C
:1021400086950E94B82760E0C7010E942F2945C0EC
:1021500080912402811106C069E284E894E00E9423
:10216000A8232CCE65E3F9CF01302CE71207A9F0A4
:102170006DCE0B353CE71307D9F00C354CE714074F
:1021800079F00A351C4709F061CE81E012C06FEF8B
:102190007FEF80E090E00E94892E0E945F2934CE7C
:1021A00080913F0282FB882780F991E0892701C056
:1021B00080E00E9436274ACE81E003C081E005C05E
:1021C00082E00E94C52703C082E00E94B82743E056
:1021D00062E081E00E94962717CE2C96E2E10C94F3
:1021E000192E8091340287FF11C08091E80082FD92
:1021F00005C0809132028111F8CF11C08091E800B2
:102200008B770BC080913202882349F08091E800DF
:1022100080FFF8CF8091E8008E778093E8000895E2
:10222000982F973068F59093E900981739F07091DE
:10223000EC002091ED005091F00003C0242F762F88
:1022400050E021FD02C09F5FECCF3091EB003E7F5C
:102250003093EB003091ED003D7F3093ED003091F5
:10226000EB0031603093EB007093EC002093ED00B5
:102270005093F0002091EE0027FDE5CF80E0089517
:102280008F708093E90081E0089520913A023091A7
:102290003B022617370748F06115710539F4209184
:1022A000E8002E772093E80001C0B901FC0120E08E
:1022B0006115710579F1809132028823F1F1853041
:1022C000F1F18091E80083FD3CC08091E80082FD3F
:1022D0002EC08091E80080FFEBCF2091F300809129
:1022E000F20090E0922B6115710551F08830910554
:1022F00038F421912093F100615071090196F3CFD8
:1023000021E0089709F020E08091E8008E77809323
:10231000E800CECF2111CFCF0AC0809132028823AE
:1023200061F0853061F08091E80083FD0AC0809102
:10233000E80082FFF2CF80E0089582E0089583E014
:10234000089581E00895089543E050E0BC0184E0E1
:102350000E94B4220895CF93DF93EC0148E050E04F
:10236000BC0181E00E94B42288E0FE01A8E2B2E054
:1023700001900D928A95E1F7DF91CF9108959091A8
:102380004002892F8D7F80934002292F257089F488
:10239000981779F090913F0292FF0BC08695869531
:1023A00086950E94B8271092400210923D0210922A
:1023B0003C020895A0E0B0E0E0EEF1E10C94052EBF
:1023C000EC018AE0A82E2881222309F49AC021304A
:1023D00009F041C08981813039F48E010E5F1F4FB1
:1023E0008A810E94102908C0823041F48E010E5F5C
:1023F0001F4F8A810E949428E80181C0833039F4FC
:102400008E010E5F1F4F8A810E946828F5CF8430AD
:1024100011F0219674C02A81229680E090E030E08D
:10242000205331092A30310558F4A89EA001A99EF5
:10243000500D1124C901840F951F21962881EFCFDB
:10244000009709F45CC0EFE9FFE03197F1F700C0B5
:1024500000000197F5CFE22FF0E0E156FB4FB4907A
:10246000822F86958695869590E0FC01E157FB4F7B
:10247000E4902770F12C022E02C0F594E7940A94A0
:10248000E2F7F1E0EF22FF24FC01E158FB4FC4909A
:10249000D12C022E02C0D594C7940A94E2F731E001
:1024A000C322DD24FC01E159FB4F049110E002C07E
:1024B000159507952A95E2F701701127E114F104AB
:1024C00019F081EE0E949428C114D10419F086EE0F
:1024D0000E9494288B2D0E941029C114D10419F058
:1024E00086EE0E946828E114F10419F081EE0E9442
:1024F00068280115110519F08CE20E941029219617
:1025000062CFCDB7DEB7EAE00C94212EAAE2B0E0AC
:10251000ECE8F2E10C940C2EE4E3F2E08CE392E0C0
:102520002091F10021938E179F07D1F780913502FA
:10253000833009F463C030F4813071F0823009F4E3
:102540009DC0B4C08A3009F489C08B3009F46EC0D4
:10255000893009F0ABC020C080913402813A09F083
:10256000A5C08091E800877F8093E80080913802C1
:1025700090913902892B21F468E088E292E003C04F
:1025800060E080E090E070E00E9445118091E800FA
:102590008B778093E8008AC080913402813209F001
:1025A00085C08091380290913902009719F0029706
:1025B00009F07CC08091E800877F8093E8008091DB
:1025C000E80082FD05C0809132028111F8CF6EC013
:1025D0002091F3008091F20090E0922B029731F469
:1025E0008091F100813011F0863021F48091F1006A
:1025F000809327028091E8008B7754C08091340249
:10260000813A09F053C08091380290913902892BA8
:1026100009F04CC08091E800877F8093E8008091AA
:10262000E80080FFFCCF80911A0137C0809134020E
:102630008132E1F58091380290913902892BB1F510
:102640008091E800877F8093E8000E94F1108091DC
:10265000360280931A010E942C2828C080913402EF
:10266000813221F58091E800877F8093E8000E9405
:10267000F110809137028093260218C080913402B5
:10268000813AA1F48091E800877F8093E8008091EF
:10269000E80080FFFCCF809126028093F1008091BA
:1026A000E8008E778093E8000E94F1108091E800A6
:1026B00083FFEBC18091340290913502492F50E0A5
:1026C0004A30510508F0E1C1FA01E056FF4F0C9481
:1026D000BB2E803821F0823809F0D7C108C0809124
:1026E000300290913102992389F082600FC080916D
:1026F00038028F70873008F0C8C18093E90080915C
:10270000EB0085FB882780F91092E9009091E800A2
:10271000977F9093E8008093F1001092F1007CC1C4
:10272000282F2D7F09F0B1C1882319F0823061F084
:10273000ACC180913602813009F0A7C1933009F015
:1027400080E0809331022EC08091360281112AC030
:10275000809138028F702FEF280F263008F095C136
:102760008093E9002091EB0020FF1CC0933021F4FE
:102770008091EB00806214C09091EB009061909387
:10278000EB0021E030E0A90102C0440F551F8A95FB
:10279000E2F74093EA001092EA008091EB00886033
:1027A0008093EB001092E9008091E800877F80938E
:1027B000E8000E94F11069C1811167C110913602D1
:1027C0001F778091E3008078812B8093E3008091D4
:1027D000E800877F8093E8000E94F1108091E80074
:1027E00080FFFCCF8091E30080688093E3001111AB
:1027F00002C082E001C083E08093320246C180586B
:10280000823008F042C120913602309137022C3DCF
:1028100053E0350779F583E08A838AE289834FB7ED
:10282000F894DE01139620E03EE051E2E32FF0E061
:1028300050935700E49120FF03C0E295EF703F5F93
:10284000EF708E2F90E0EA3010F0C79601C0C0966E
:102850008D939D932F5F243149F74FBF8091E800FE
:10286000877F8093E8006AE270E0CE0101960E94C3
:102870004511C0C08091380290913902432F5527ED
:1028800043305105B1F068F44130510509F40CC1F1
:102890004230510509F0F9C08BE590E0ECEAF3E035
:1028A00057C04132510589F14232510509F43CC00B
:1028B000ECC0C901992781309105B9F070F08230E0
:1028C0009105D9F0039709F0E0C0E9E1F4E0E49163
:1028D0008E2F90E0E9E1F4E038C0EBE6F4E0E4911B
:1028E0008E2F90E0EBE6F4E030C0EDE4F4E0E4910C
:1028F0008E2F90E0EDE4F4E028C0E7E3F4E0E4910B
:102900008E2F90E0E7E3F4E020C08330910508F0DB
:10291000BCC0880F991FFC01E358FE4F0190F08165
:10292000E02D89E090E014C08330910508F0ADC03F
:10293000FC01EE0FFF1FE958FE4F0190F081E02DE2
:10294000DC01AC58BE4F8C9190E0009709F49DC01B
:102950002091E800277F2093E80020913A023091EF
:102960003B022817390708F4C90140E0009789F1B4
:1029700020913202222309F43DC02530D9F1209163
:10298000E80023FD37C02091E80022FD2FC02091F0
:10299000E80020FFEBCF4091F3002091F20030E0FF
:1029A000342B009759F02830310540F4449140937E
:1029B000F100319601972F5F3F4FF3CF41E0283070
:1029C000310509F040E02091E8002E772093E800DF
:1029D000CDCF4111CDCF0AC080913202882351F072
:1029E000853041F08091E80083FD04C08091E800CB
:1029F00082FFF2CF8091E8008B778093E80045C09A
:102A0000803809F042C08091E800877F8093E80019
:102A1000809133028093F1008091E8008E77C7CED9
:102A2000811133C080913602909137029927029725
:102A300064F58091E800877F8093E800109136026A
:102A4000109333020E94F110111106C08091E3002F
:102A500087FD02C081E001C084E08093320242E041
:102A600061EC81E00E94101142E261EC84E00E947E
:102A7000101142E261EC82E00E94101142E260EC2F
:102A800083E00E941011809132028091E80083FF60
:102A900010C08091E800877F8093E8008091EB0070
:102AA00080628093EB0005C082E190E0E7E0F4E013
:102AB0004FCFAA96E3E00C94282E1F920F920FB6E8
:102AC0000F9211242F933F934F935F936F937F93B4
:102AD0008F939F93AF93BF93CF93DF93EF93FF9326
:102AE000C091E900CF708091EC00D82FD17080FDAB
:102AF000D0E81092E9008091F000877F8093F00089
:102B000078940E9486121092E9008091F00088600B
:102B10008093F000CD2BCF70C093E900FF91EF912F
:102B2000DF91CF91BF91AF919F918F917F916F91E5
:102B30005F914F913F912F910F900FBE0F901F907B
:102B40001895E8EDF0E080818E7F80831092E2009E
:102B50001092DA001092E100A0EEB0E08C9181605A
:102B60008C9380818F77808319BCA7EDB0E08C9126
:102B70008E7F8C9380818F7E8083109225020895B2
:102B8000A0E0B0E0E6ECF5E10C94072EC8EDD0E053
:102B900088818F7E8883E7EDF0E08081816080838B
:102BA00084E082BF81E08093250288818E7F8883C4
:102BB00002EE10E0F80110821092DA0081EEC82EC9
:102BC000D12CF601108288818F7788838881806874
:102BD000888388818F7D888319BC1092320210927D
:102BE0003302109231021092300290EEE92EF12C55
:102BF000F70180818B7F808388818160888342E0B8
:102C000060E080E00E941011F60180818E7F808359
:102C1000F801808181608083808188608083F701F2
:102C200080818E7F8083888180618883CDB7DEB785
:102C3000E8E00C94232E1F920F920FB60F921124EE
:102C40002F933F934F935F936F937F938F939F93B4
:102C5000AF93BF93EF93FF938091E10082FF09C090
:102C60008091E20082FF05C08091E1008B7F80931C
:102C7000E1008091DA0080FF2AC08091D80080FFB7
:102C800026C08091DA008E7F8093DA008091D9008F
:102C900080FF18C080E189BD82E189BD09B400FED2
:102CA000FDCF81E0809332028091250281110FC017
:102CB0000E94A1150E94C0158091E200846080935B
:102CC000E20005C019BC10923202109225028091D8
:102CD000E10080FF17C08091E20080FF13C0809167
:102CE000E2008E7F8093E2008091E2008061809319
:102CF000E2008091D80080628093D80019BC85E002
:102D0000809332028091E10084FF30C08091E20024
:102D100084FF2CC080E189BD82E189BD09B400FE39
:102D2000FDCF8091D8008F7D8093D8008091E10005
:102D30008F7E8093E1008091E2008F7E8093E2009D
:102D40008091E20081608093E200809133028823C9
:102D500011F084E007C08091E30087FD02C081E0AC
:102D600001C083E080933202809132028091E100C1
:102D700083FF27C08091E20083FF23C08091E100A0
:102D8000877F8093E10082E08093320210923302C9
:102D90008091E1008E7F8093E1008091E2008E7F40
:102DA0008093E2008091E20080618093E20042E043
:102DB00060E080E00E9410118091F00088608093B4
:102DC000F000FF91EF91BF91AF919F918F917F9113
:102DD0006F915F914F913F912F910F900FBE0F9088
:102DE0001F9018952091E4003091E50095E6409100
:102DF000EC00842F817040FF23C08091E80080FDAB
:102E00001DC080913202882399F0853099F080911D
:102E1000EB0085FD11C04091E4005091E5002417BE
:102E2000350729F3915011F09A01E1CF84E008951C
:102E300082E0089583E0089581E0089580E0089598
:102E40004091E80042FFDDCF089580E00895909121
:102E50003E0292FF10C041E0282F2471243009F077
:102E600040E031E0282F2871283009F030E0431786
:102E700011F02CE0822793FF10C041E0282F24712D
:102E8000243109F040E031E0282F2871283109F081
:102E900030E0431711F02CE0822730913F0230FFE1
:102EA00010C051E0282F2171213009F050E041E09D
:102EB000282F2871283009F040E0541711F029E03C
:102EC000822731FF10C041E0282F2171213109F004
:102ED00040E031E0282F2871283109F030E0431715
:102EE00011F029E0822794FD877E089582389105AC
:102EF00069F1B0F48133910509F475C048F4893261
:102F0000910509F467C08A32910509F471C00895EA
:102F10008533910509F459C089339105B9F00895B5
:102F2000833E910589F138F4803E9105D1F0823ECF
:102F3000910529F10895863E9105C9F1873E9105D5
:102F4000D9F1843E910509F06CC027C020913E0262
:102F500020FD57C021FD55C020913F0223FD5BC0DD
:102F6000089580913E0280FD48C080913F0280FF1D
:102F700048C080913E0284FD46C083EE51C08091DE
:102F80003E0282FF3CC0F5CF80913E0282FD37C0F9
:102F900080913F0280FD35C0ECCF80913F0281FFE0
:102FA00036C080913E0284FD2EC087EE39C08091EC
:102FB0003E0283FF2AC0F5CF80913E0283FD25C0EB
:102FC00080913F0281FD23C0ECCF80913E0285FDC0
:102FD00022C01FC080913E0285FD1BC080913F0230
:102FE00083FF19C00AC080913E0286FD16C017C03B
:102FF00080913E0286FD13C010C089E311C082EEAD
:103000000FC080EE0DC080E00BC086EE09C084EEDC
:1030100007C085E305C089E203C08AE201C081E3FD
:1030200090E00895A0E0B0E0E8E1F8E10C94052E0E
:103030007C015B016A0180916A028A3018F001E02C
:1030400010E002C00AE010E0C1E0D0E0B501C70125
:10305000F6010995811115C021960C171D0794F0F2
:10306000CC9F9001CD9F300D300D112480E090E079
:1030700045E34A95F1F70000019682179307C1F7DF
:10308000E5CF81E0CDB7DEB7EAE00C94212EA0E0D9
:10309000B0E0EDE4F8E10C94002E582E69015801DF
:1030A00098E08902E00111244115510541F4FE0127
:1030B000E55EFE4F86819781892B11F534C0FE01B4
:1030C000E55EFE4FE080F12C4E155F0508F47A01B5
:1030D000FE01E55EFE4F81809280C40182519B4FCC
:1030E0003C01A7010E94D52E04E610E09701A30140
:1030F000682D82E30E94C62C97FFD9CF80E037C0AD
:103100005092EE0460911C0170911D0120911B01F1
:1031100030E0AB0142515B4F04E610E082E30E94D5
:10312000C62C97FDEBCFA114B10401F1FE01E55EC1
:10313000FE4FE380F12CAE14BF0408F47501C55EA8
:10314000DE4F6C817D81AB0142515B4F04E610E0A4
:10315000970182E30E94ED2C97FDD0CF6C817D8199
:1031600062517B4FA701C6010E94D52E81E0CDB7E9
:10317000DEB7EFE00C941C2EA1E0B0E0E2ECF8E149
:103180000C94022E762E4A015901680101E010E0EC
:103190009E012F5F3F4F40E050E060E070E00E94F2
:1031A0004718182F882379F1F40160817181828199
:1031B00093810E943C23643671058105910538F4A2
:1031C000B701C6010E94CD1F99818917E1F08701DF
:1031D000950140E050E060E070E0872D0E944718C4
:1031E000182FB701C6010E94CD1F91E02981281335
:1031F00090E0192369F00E946723F40160837183D2
:103200008283938305C0A701B601C5010E94D52E14
:10321000812F2196EDE00C941E2EACE0B0E0E3E1AE
:10322000F9E10C94072E6B018CE0E82EF12C00EFF5
:1032300014E09E012F5F3F4F4EE552E062E081E0D7
:103240000E94BC18882349F09CE0FE013196A2E55B
:10325000B2E001900D929A95E1F79CE0E2E5F2E090
:10326000D60101900D929A95E1F72C96E8E00C9426
:10327000232E80915102811118C08091D800806165
:103280008093D8008AE18A95F1F700C08091D90037
:1032900080FD02C082E001C081E080935102823053
:1032A00021F40E94A1151092320281E09091510206
:1032B000913009F080E00895F894E82FE295EF70DE
:1032C000F0E031A1282F2F7081E090E001C0880F3D
:1032D0002A95EAF7982F9095932391A392A1892B91
:1032E00082A3789408950F931F930E94391988231D
:1032F00019F00E9467230EC00E9467230091C0014D
:103300001091C1012091C2013091C301600F711F62
:10331000821F931F1F910F910895A4E0B0E0E3E98D
:10332000F9E10C940B2E6091660270916702809116
:103330006802909169020E943C2364367105810500
:10334000910528F10E947319DC01CB010296A11DA1
:10335000B11D89839A83AB83BC8300E010E020E039
:1033600030E044E050E0BE016F5F7F4F85E00E9497
:103370004718182F882361F00E9467236093660224
:1033800070936702809368029093690201C011E014
:10339000812F2496E4E00C94272E20912002309176
:1033A0002102232B31F5703F39F4603F11F58091F4
:1033B0006B0290916C0208957C3048F46A30C8F436
:1033C000811117C0462F672F0E94D31D08957D3F9E
:1033D00031F4623070F481110CC041E007C07C3FD1
:1033E00041F4623030F4811104C040E00E94AD2607
:1033F000089580E090E008951F93CF93DF930E949B
:103400007617EC0181159045E8F5C11580E4D807E1
:1034100008F0FFC0C03ED10530F5CD3CD10508F025
:10342000A4C0C83AD10578F4C53AD10508F093C0D4
:10343000C130D10509F48CC008F4F0C0C430D10506
:1034400008F0EFC0EBC0C33CD10508F0E7C0C85A94
:10345000D0E0CC0FDD1FCA57DE4F0990D881C02DB8
:10346000CE019464DFC0C11590E2D90708F0D1C045
:10347000C11561E0D60708F07BC0C83ED10508F44D
:10348000D0C0CCC0C03682E5D80728F5C03492E55C
:10349000D90708F080C0C03262E5D60708F073C0D3
:1034A000C11582E5D80708F488C04C2F469546958B
:1034B00060E2469FA0011124C37021E030E0C90101
:1034C00002C0880F991FCA95E2F7EA01C82BD92BD1
:1034D000CE019D68A7C0C03A92E5D907B8F48C2FF9
:1034E0008F71C03862E5D60708F082C08695869550
:1034F00060E2869F90011124C37081E090E002C0D9
:10350000880F991FCA95E2F79A686FC0C03C82E5A0
:10351000D80708F474C0C03E92E5D90708F07EC011
:10352000AE0133E0440F551F3A95E1F7407E552731
:10353000C370DD2721E030E0C90102C0880F991F68
:10354000CA95E2F7EA01C82BD92BCE019A686AC066
:1035500081E090E067C0C55AD0E0CD57DE4F88814A
:10356000C82FD0E0CE0190645DC0CE0190655AC0F6
:103570008D2F0E942717182FCE0199270E947617AA
:103580001F71912B4FC0CF71D0E0DC2FCC27CE0123
:10359000816F906A47C08C2F8F718695869590E2D7
:1035A000899F90011124C37081E090E002C0880FD0
:1035B000991FCA95E2F79C6818C08C2F8F710E94E2
:1035C000271795E0D695C7959A95E1F7CF70D0E08B
:1035D000DC2FCC27282F30E084FF05C084E0220FA9
:1035E000331F8A95E1F7D069CE01822B932B1AC045
:1035F00090E0D82FCC27CE01846F906A13C08C2F17
:103600008F710E9427178F71C82FD0E09C2F8827B9
:1036100009C0CE0199270E94761704C080E090E08F
:1036200001C0CE01DF91CF911F9108950E947319BF
:103630000895A1E0B0E0EFE1FBE10C94062EEE244A
:10364000E394F12C0DEF14E09E012F5F3F4F42E613
:1036500052E064E083E00E94BC18B82E882309F48D
:103660003DC000E080E09091C4010917A0F5D09022
:10367000C501D00E2D2D30E0A90145505E4F7A01D5
:10368000E1E0F0E0EC0FFD1FE00FF11D1081FA0109
:103690009081191BC12E1C145CF4CA94F70180811F
:1036A0008F5F808360E08D2D0E94112181E0F3CF38
:1036B000912F17FD90E0191B112359F01F5FF7019F
:1036C00080818150808361E08D2D0E94112181E0F5
:1036D000F3CF0F5FC8CF81110E94161B8B2D21964F
:1036E000E9E00C94222EA8E0B0E0E9E7FBE10C94BD
:1036F0000D2E66EE7EEF80E090E00E94892E60E065
:1037000082E090E00E946B2E60E083E090E00E94F7
:103710006B2E1092440260E074E184E090E00E941D
:10372000892E60E086E090E00E946B2E6FEF87E0CC
:1037300090E00E946B2E40E050E0BA0188E090E0FB
:103740000E947D2E60E084E290E00E946B2E60E09B
:1037500087E190E00E946B2E60E08CE090E00E9498
:103760006B2E60E08DE090E00E946B2E19821A8231
:103770001B821C821D821E821F82188648E050E038
:1037800068E170E0CE0101960E945B2E40E050E0BF
:10379000BA0180E290E00E947D2E80E00E94C92064
:1037A0000E94E82040E050E0BA018FE090E00E94E3
:1037B0007D2E40E050E0BA0183E190E00E947D2E32
:1037C0002896E2E00C94292E80914302882331F060
:1037D0001092430210924202109241020895809585
:1037E0009091A50489238093A5040895A6E0B0E0F4
:1037F000ECEFFBE10C940B2E0E9473238C01809163
:103800004502909146020817190781F019821A8221
:103810000E947323682F49815A81792F80E090E0BC
:103820000E94BC2910934602009345022696E4E0CC
:103830000C94272EA4E2B0E0E0E2FCE10C94032E0D
:103840009E012F5F3F4F790188E1D9011D928A9532
:10385000E9F700E011E0CC24C394D12CAA24A3946E
:10386000B12C4E01BDE08B0E911CF80180818F3F81
:1038700009F44AC0F894E82FE295EF70F0E021A136
:103880008F70A50102C0440F551F8A95E2F7CA0147
:10389000922F982B91A392A18095892382A378944B
:1038A00000C06AE071E0F701A60140955095DB0188
:1038B0002D91BD012F3FA9F0822F82958F7090E04E
:1038C000DC0190968C9190E02F7002C095958795C1
:1038D0002A95E2F780FD05C0808191818C299D2980
:1038E00004C08081918184239523918380833296C3
:1038F0008E169F06E1F6F80180818F3F11F00E943D
:103900005C19F0EAFA95F1F7CC0CDD1C0F5F1F4F44
:1039100021E00A30120709F0A8CF48E150E0B701D2
:1039200086EC91E00E94C82E009741F028E1F70153
:10393000A6ECB1E001900D922A95E1F70091DF012C
:10394000892B49F081E0809349020E947323909370
:1039500048028093470280914902811102C0D12C14
:1039600024C080914702909148020E9458230597F5
:10397000B0F310E0000F111F085F1D4F4CE050E046
:1039800066EC71E0C8010E94C82E892B59F08CE0CA
:10399000E6ECF1E0D80101900D928A95E1F7DD2483
:1039A000D39401C0D12C109249020E943919E091A0
:1039B000DF01AE01475E5F4F7A01882309F473C0CF
:1039C0008CE0DA011D928A95E9F70E2F10E0000FC6
:1039D000111F085F1D4F80916A028A3048F44DE044
:1039E00059E1B701C8010E941218882379F10AC071
:1039F00080914A0290914B020E945823843F91404B
:103A000070F735C049E15BE1B701C8010E941218A7
:103A10008823E1F04DE859E1B701C8010E9412186E
:103A20008823A1F010926A028091DE0190E0880F55
:103A3000991F4CE050E0B701885F9D4F0E94C82E4F
:103A400021E020935002892BF1F485C080916A0215
:103A50008F3F19F08F5F80936A0280916A028A30EB
:103A600018F30E94732390934B0280934A02809133
:103A70005002882309F46FC08CE0F70111928A95F7
:103A8000E9F710925002A091DE01B0E0AA0FBB1F2F
:103A9000A85FBD4F8CE0FE01799601900D928A954A
:103AA000E1F781E059C0F0E0EE0FFF1FE85FFD4F46
:103AB0008CE0A0EFB4E001900D928A95E1F76CE004
:103AC00070E080EF94E00E94CD1F8093EF0440915E
:103AD000000250E06091FF0170E065507E4FC70129
:103AE0000E94D52E898D8093FD0461E070E0C701AE
:103AF0000E94CD1F8093FC048090FE049090FF04F0
:103B0000A0900005B090010580914C0290914D026B
:103B1000A0914E02B0914F0288169906AA06BB06E4
:103B2000D1F080924C0290924D02A0924E02B0923F
:103B30004F020E94391981110EC00E946723861A14
:103B4000970AA80AB90A8092C0019092C101A09276
:103B5000C201B092C30180E08D29A496ECE00C94E0
:103B60001F2E1F93CF93DF93962F811118C06C30B7
:103B7000B0F44A30A0F4632F122FC42FD0E0CC0F42
:103B8000DD1F84E1989FC00DD11D1124CE018996BF
:103B90000E946B2E612FCE018A960E946B2EDF91C0
:103BA000CF911F9108950F931F93CF93DF938111AE
:103BB0001CC06C30D0F44A30C0F4C42FD0E0CC0F1D
:103BC000DD1F24E1629FC00DD11D1124CE01899615
:103BD0000E944D2E90E0182F0027CE018A960E9459
:103BE0004D2E9801282BC90102C080E090E0DF91A2
:103BF000CF911F910F9108958B3109F47BC058F537
:103C00008B3009F4A1C078F4863009F446C020F462
:103C1000853009F44CC09AC0873009F45DC0883003
:103C200009F492C093C0803109F477C068F48E30F3
:103C300009F08CC08091830482FB222720F991E057
:103C4000922790FB82F95FC0863109F47DC08931EB
:103C500009F47AC07BC08A32E9F060F4873209F453
:103C60006EC028F48E3108F471C08D5161C0893264
:103C7000F1F06CC0833450F48A3308F058C08533B7
:103C800009F45DC0883309F45FC060C0833409F46F
:103C900056C05CC00E94731B57C080918304817F13
:103CA0008E7F8093830481E08093820408958091C5
:103CB0008C0490918D04892B09F446C00E942C2815
:103CC0002FEF84E39CE0215080409040E1F700C05A
:103CD00000000E94F22238C080918304982F9095B2
:103CE000917090FB80F98093830491112DC0897F9E
:103CF000877F10C08091830481FB222720F991E007
:103D0000922790FB81F9809383049923E9F08091B5
:103D1000830481608093830417C08091830483FBB4
:103D2000222720F991E0922790FB83F9ECCF895369
:103D300091E001C0990F8A95EAF7892F01C081E0CF
:103D40000E94D1270E942C2881E0089580E00895E8
:103D5000BC0140917E0480917F04942F981729F133
:103D6000292F30E0F901EE0FFF1FEA58FB4F0190B9
:103D7000F081E02DE617F70799F487E0869FF001C0
:103D8000879FF00D1124E352FC4F81E0848394134C
:103D90000CC02F5F3F4F2370332720937E0408957C
:103DA0002F5F3F4F922F9370D9CF08950F931F939A
:103DB000CF93DF9380911504882389F1C091DC03B0
:103DC0001CE080911504C81730F501E00C0F00933A
:103DD000DC03D0E01C9FF0011D9FF00D1124EA5E72
:103DE000FB4F84818823A9F086819781892B21F458
:103DF00080859185019619F4CF010E945A0A1C9F73
:103E0000F0011D9FF00D1124EA5EFB4F1482109209
:103E1000A404C02FD6CF109215041092DC03DF91BA
:103E2000CF911F910F9108951092DB031092DA0346
:103E3000EDEDF3E08581811102C014821682379680
:103E400084E0E531F807B1F70895109281041092EB
:103E5000800410924B0180917F0480937E040E9425
:103E6000141F0E94D61E0895A0E0B0E0EAE3FFE12F
:103E70000C94FE2DC0917E0497E0992E01E010E095
:103E80002CE0322E34E0432E5524539480917F044D
:103E9000C81709F479C0D0E0FE01EE0FFF1FEA5801
:103EA000FB4F80819181989ED001999EB00D112485
:103EB000A352BC4F14962C911497211162C070909C
:103EC0001504E6E1F4E020E030E0812C5D012715E7
:103ED00008F055C0E284F384D501CD90DC906FEFFB
:103EE0007FEF612C462D50E0DA01AA0FBB1FAC0D0D
:103EF000BD1D0D90BC91A02D109731F0EA16FB0668
:103F000009F4BA016394EECF6F3FBFEF7B0799F1DD
:103F1000D80102C0AA0FBB1F6A95E2F78A2AB8012E
:103F2000062C02C0660F771F0A94E2F7AB014150DE
:103F30005109682D70E046175707E1F4329EF001F1
:103F4000339EF00D1124EA5EFB4F989ED001999E9E
:103F5000B00D1124A352BC4F12962D913C91139792
:103F60003783268344821082118291878087159639
:103F70005C9205C014822F5F3F4F3C96A8CF0E94F1
:103F8000A81E2196C37082CF0E94D61E0E94141FC5
:103F9000CDB7DEB7E1E10C941A2EFC01680F791F52
:103FA0008FEF91E3E617F70771F02191822728E060
:103FB00030E087FF03C0880F892701C0880F215098
:103FC0003109B9F7EFCF0895AAE0B0E0EAEEFFE1DA
:103FD0000C94032E02E613E080E5C82E83E0D82E71
:103FE00091ECE92EFF24F3942FE0922E3FE4A32ED0
:103FF00033E0B32E88248394F601019311936F016B
:104000004AE050E0B701CE0101960E943D2EF80132
:10401000892D11928A95E9F789819A81F801918316
:1040200080838F8182838D81838388858483898542
:1040300085838B819C819783868310868A8587FF01
:1040400003C01686158603C0F801B686A58680FFD4
:1040500002C0F801808681FF04C0F801908592605B
:10406000908782FF04C0F80190859460908783FF59
:1040700004C0F80190859860908784FF04C0F8011F
:1040800090859061908785FF04C0F80180858062EB
:104090008087015F1F4FFAE0EF0EF11C81E1E81607
:1040A00082E0F80609F0A8CF2A96ECE00C941F2EC7
:1040B000AAE0B0E0EEE5F0E20C94072E80E5EFEF29
:1040C000F2E0DF011D928A95E9F788E3EDEDF3E078
:1040D000DF011D928A95E9F78FEFC82E82E0D82E76
:1040E0007F0101E711E0F701D182C0824AE050E090
:1040F000B801CE0101960E943D2E88E0FE01319666
:10410000D60101900D928A95E1F789859A85D701AC
:1041100013969C938E931297BAE0CB0ED11CE7E0D6
:10412000EE0EF11C065F1F4F013CF1E01F07D9F6B0
:104130002A96E8E00C94232EEFE7F2E080E090E08E
:1041400060E172E247E352E222E931E2778366837B
:104150005187408733872287978786870196709695
:104160008830910599F7089581152CE7920759F445
:1041700080918C0490918D04892B19F480E090E05B
:10418000089580E09CE7089588E290E00E946B2EFD
:104190000895CF93C82F811102C06FEF01C068E569
:1041A00085E290E00E946B2EC11102C06FEF01C04A
:1041B00063E686E290E00E946B2EC11102C06FEFB1
:1041C00001C061E187E290E00E946B2ECF910895DB
:1041D00080E00E94C92060E070E0CB010E94C42012
:1041E0000E9407260E94B52581E00E94C9200895FB
:1041F00085E290E00E944D2E883581F486E290E0C1
:104200000E944D2E833651F487E290E00E944D2E9D
:1042100091E0813109F090E0892F01C080E0817048
:104220000895ACE0B0E0E7E1F1E20C940B2E182F1A
:10423000062F662349F00E9473231F832DEF2887E2
:104240009A87898782E008C00E9473231F832CEF1E
:1042500028879A87898783E08B8781E08C874F81C5
:10426000588569857A858B859C850E94BC290023A9
:1042700049F00E94732319832DEF2A839C838B833B
:1042800082E008C00E94732319832CEF2A839C8349
:104290008B8383E08D831E8249815A816B817C816F
:1042A0008D819E810E94BC292C96E4E00C94272EDF
:1042B000A6E0B0E0EEE5F1E20C940B2E8C019093B9
:1042C0006C0280936B02011580E21807B8F4802F0E
:1042D0000E946828C801805E9109089718F00115AE
:1042E000110531F4C8010E9475290E94572816C093
:1042F000C8010E9475290E94422810C080EF89835E
:104300008A830E9473238160682F9C838B834981F9
:104310005A817C8181E090E00E94BC292696E4E0ED
:104320000C94272E0F931F93CF93DF938C01EB01F7
:1043300065E772E08C2F0E94C525892BE1F5DD270A
:10434000C359DD4F8881F80112821882833079F0D9
:1043500048F4813041F1823071F58091770290917B
:10436000780209C0843051F08530E9F024C0809192
:10437000790290917A020097B1F01BC080917B0284
:1043800090917C020097A9F42091750230917602F9
:1043900080917702909178022115310541F00097C4
:1043A00041F4C90106C08091750290917602009790
:1043B00011F00E945821DF91CF911F910F91089524
:1043C000A6E0B0E0E6EEF1E20C940D2E90936C02C4
:1043D00080936B02811520E2920718F40E94A229B3
:1043E00010C080EF89838A830E9473238160682FC5
:1043F0009C838B8349815A817C8181E091E00E947A
:10440000BC292696E2E00C94292ECF93DF93EC0191
:104410000E94E021CE010E945821DF91CF910895A2
:104420000F931F93CF93DF938C01862F65E772E084
:104430000E94C525892BB1F4C0917502D0917602F6
:10444000209781F0F8018281833039F4CE010E94F7
:104450000522CE010E94052202C0843018F0CE0150
:104460000E940522DF91CF911F910F9108950F9324
:104470001F93CF93DF938C01EB0165E772E08C2FE4
:104480000E94C525892B09F067C0DD27F8018281CC
:10449000813039F4958192FD13C090FF11C082E004
:1044A0000FC0823041F4F801858182FD06C080FD95
:1044B00006C083E005C086E003C085E001C084E05B
:1044C000C359DD4F88838330B1F028F4813071F017
:1044D000823031F041C08430A9F0853079F13CC0A0
:1044E00080917702909178020097A1F580917502F2
:1044F0009091760220C08091790290917A02009783
:10450000E9F028C080917B0290917C02009711F520
:104510008091750290917602009749F00E940522E1
:104520008091770290917802009781F013C080917A
:10453000770290917802009779F00CC08091750213
:1045400090917602009741F00E94052280917502B9
:10455000909176020E94E021DF91CF911F910F91FF
:1045600008958091270208950F931F93CF93DF93AF
:104570008B01EA0190913202943079F58F7080932B
:10458000E9008FEF9091E800815095FD06C095ED10
:104590009A95F1F700008111F5CF8091E80085FF31
:1045A0001CC00E94F216882361F08091E8008E778B
:1045B0008093E80012C0F80181918F018093F1008F
:1045C0002197209791F38091E80085FDF4CF8091A9
:1045D000E8008E778093E800E4CFDF91CF911F91C0
:1045E0000F91089581E08093E00080E28093D800ED
:1045F0001092C9008FE19EE40197F1F700C000001E
:1046000087E090EBDC018093020590930305A09373
:104610000405B09305059CE088E10FB6F894A895D1
:10462000809360000FBE90936000FFCF78941F923C
:104630000F920FB60F9211248F939F93AF93BF9356
:104640008091AF049091B004A091B104B091B204F4
:104650000196A11DB11D8093AF049093B004A09367
:10466000B104B093B204BF91AF919F918F910F901D
:104670000FBE0F901F901895CF92DF92EF92FF928E
:104680002FB7F894C090AF04D090B004E090B1047C
:10469000F090B2042FBFA7019601261B370B480BE1
:1046A000590BCA01B901FF90EF90DF90CF900895A8
:1046B0009C014FB7F8948091AF049091B004A09101
:1046C000B104B091B2044FBF821B930B08952FB772
:1046D000F8946091AF047091B0048091B10490910E
:1046E000B2042FBF08952FB7F8948091AF04909132
:1046F000B004A091B104B091B2042FBF08951F92ED
:104700000F920FB60F9211248F939F93AF93BF9385
:104710008091AE04811113C08091AF049091B004D8
:10472000A091B104B091B2044196A11DB11D809336
:10473000AF049093B004A093B104B093B204BF91BE
:10474000AF919F918F910F900FBE0F901F90189572
:104750009C012A5F3F4FFC014281461301C0128237
:10476000019682179307B9F708959C01FC013296D0
:104770009FEF80E04191461789F09F3F19F4411166
:1047800001C0982F8F5F8630A9F79F3F39F0F9015C
:10479000E90FF11D97FDFA95628308950895A3E04E
:1047A000B0E0E5EDF3E20C940D2E2091AC043091D5
:1047B000AD0428173907A1F09093AD048093AC04A1
:1047C000E091AA04F091AB04309751F024E02983E2
:1047D0009B838A830680F781E02DCE01019609959F
:1047E0002396E2E00C94292EA3E0B0E0EAEFF3E296
:1047F0000C940D2E2091A8043091A9042817390794
:10480000A1F09093A9048093A804E091AA04F091E8
:10481000AB04309751F023E029839B838A83068081
:10482000F781E02DCE01019609952396E2E00C94E4
:10483000292E0E943919882359F0E091AA04F09199
:10484000AB04309729F00190F081E02D099508958F
:1048500080E008954115510511F0FA010995089578
:10486000CF93DF93EC014A855B856E857F850E943F
:104870002A248B8180959091A40489238093A40499
:104880008C810E94EF1B0E94D42786E0FE011192CA
:104890008A95E9F7DF91CF910895CF93DF93EC01EB
:1048A0008D8181FD17C082608D839091A4048B81DE
:1048B000892B8093A4049091A5048C81892B8093EB
:1048C000A5040E94D427488559856E857F85CE0131
:1048D0000E942A241092A7041092A6048D8180FDC4
:1048E00003C0CE010E943024DF91CF9108950F9331
:1048F0001F93CF93DF93C42FD22FFC018581882390
:10490000B1F04093A3040E9473239093A204809378
:10491000A10480E28C0F883008F04DC0C77081E0A0
:1049200001C0880FCA95EAF70E945E2844C08091B2
:10493000A304481330C08091A1049091A2040E9466
:104940005823883C910538F510E21D0FCD17B9F0BA
:1049500080E28C0F883040F4C77081E001C0880F7E
:10496000CA95EAF70E945728183010F581E09D2F6C
:10497000977001C0880F9A95EAF70E945E28802FF1
:104980000E9410291830B8F4D77081E001C0880F58
:10499000DA95EAF70AC080E28C0F883060F4C770BD
:1049A00081E001C0880FCA95EAF70E94572803C02A
:1049B000802F0E941029DF91CF911F910F910895B0
:1049C000CF92DF92EF92FF92CF93DF93EC01C090F2
:1049D0009604D0909704E0909804F0909904C70151
:1049E000B6010E943C23643F71408105910568F443
:1049F000C0929204D0929304E0929404F0929504B1
:104A000084EF91E0A0E0B0E00EC00E9467236093C5
:104A1000920470939304809394049093950482E39A
:104A200090E0A0E0B0E080938E0490938F04A09378
:104A30009004B0939104D0939E04C0939D04DF91A1
:104A4000CF91FF90EF90DF90CF900895FF920F935A
:104A50001F93CF93DF9300919F041091A004011541
:104A6000110509F45CC010929E0410929D041092EE
:104A70009A0410929B04D80116966D917C91179719
:104A80009B013A9521153F4108F4707EC62FD1E075
:104A9000611101C0D0E0F82ED8011996ED91FC917A
:104AA0001A97309739F01B966D917C911C9780E096
:104AB0000995D823DD2379F08CEF8C0F813A30F4FF
:104AC0006C2F84E894E00E94A82305C00E94D4279C
:104AD0008C2F0E946828E0919F04F091A0044081EF
:104AE0005181FF2071F0808584FD0BC080919C0472
:104AF000882339F091E09A01215031092F333E4744
:104B000008F090E090FF03C0CA010E94E0240E94D8
:104B1000D4271092A00410929F0410929C04C80104
:104B2000CDB7DEB7E5E00C94262EFC018481862308
:104B3000C1F492819923B9F08085692383FF04C071
:104B400081E0611111C00DC0892F8F7092959F7007
:104B5000982B862F8F7062956F70682B81E0961767
:104B600019F080E0089581E00895CF93DF93C1E1CB
:104B7000D2E060E0CE010E946B2E2196C11584E048
:104B8000D807B9F7DF91CF910895883080F49B0161
:104B9000982F8AE0989FB00111246F5D7E4F4AE004
:104BA00050E0C9010E943D2E80E090E008958FEF13
:104BB0009FEF08950F931F93CF93DF93811122C02E
:104BC000623000F584E0689FE0011124C75EDE4F8B
:104BD000411103C082E090E002C080E090E0632FCA
:104BE000022F142F8C0F9D1F0E946B2E111103C0DA
:104BF00083E090E002C081E090E0602F8C0F9D1F69
:104C00000E946B2EDF91CF911F910F910895AEE11D
:104C1000B0E0EDE0F6E20C94062EE0908C04F0900B
:104C20008D0481E090E090938D0480938C04B12CEE
:104C3000C12CD12C00E010E0F801EC0DFD1DEE0FB1
:104C4000FF1FE15EFA4F25913491402F6B2D80E0DC
:104C50000E94B11D0F5F1F4F0A30110569F78AE0EE
:104C6000C80ED11CB394ECE0BE12E4CFEFE0F6E046
:104C70002591349141E060E080E00E94DA25E1E195
:104C8000F6E02591349140E060E080E00E94DA2572
:104C9000E3E1F6E02591349141E061E080E00E949B
:104CA000DA25E5E1F6E02591349140E061E080E02D
:104CB0000E94DA251A8219821C821B821E821D82A2
:104CC00018861F8288EC90E09A87898701E211E0BC
:104CD0004AE050E0B801CE0101960E948F2E065F97
:104CE0001F4F0137F1E01F0799F76E018BE0C80EE7
:104CF000D11C8AE0F60111928A95E9F74AE050E06A
:104D0000B801C6010E948F2E065F1F4F013CF1E0E3
:104D10001F07A1F76E0185E1C80ED11C8AE0F601DC
:104D200011928A95E9F78FEF9FEF9A8F898F87E02D
:104D30008E8F4AE050E0B801C6010E948F2E065FB8
:104D40001F4F0131F2E01F07A1F7F0928D04E092AE
:104D50008C046E96E9E00C94222EFF920F931F9321
:104D6000CF93DF93811126C0623020F524E0629F4B
:104D700080011124075E1E4F411103C082E090E0C4
:104D800002C080E090E0F42E800F911F0E944D2E13
:104D900090E0D82FCC27F11003C083E090E002C050
:104DA00081E090E0800F911F0E944D2E9E01282BE4
:104DB000C90102C080E090E0CDB7DEB7E5E00C9419
:104DC000262E9B01782F777043E0969587954A951C
:104DD000E1F7FC01EE0FFF1F8E0F9F1FF901E80F97
:104DE000F91F40E050E080E0219130E0072E02C042
:104DF000369527950A94E2F721703327042E01C0D7
:104E0000220F0A94EAF7822B4F5F5F4F4330510520
:104E100059F70895962F9770A1E001C0AA0F9A95AF
:104E2000EAF793E0769567959A95E1F7FB01EE0F27
:104E3000FF1F6E0F7F1FFA01E60FF71F40E050E0E3
:104E4000682F70E090819B01042E02C03695279553
:104E50000A94E2F72170219529272A2329272193F3
:104E60004F5F5F4F4330510569F7089590913F02BE
:104E700092FB222720F9281771F080FB92F990937A
:104E80003F0260913E0270913F0284E090E00E94F8
:104E9000892E0E94BF1108953091E00120914402B3
:104EA000232B20FF06C0BC0180E00E94CD190E9488
:104EB000FC1980E00895903FC9F09C3070F48A306E
:104EC00060F4282F30E066EB74E0A901EAE09E9FD1
:104ED000400D511D1124CA0106C09C5F923030F470
:104EE00063EB74E090E00E94E126089580E008956D
:104EF000282F903FB9F0862F622F9C3058F42A302B
:104F000048F470E02AE0929F600D711D112446EB79
:104F100054E006C09C5F923028F470E043EB54E00C
:104F20000E940A2708958093E00108959091E0017E
:104F300021E030E0F90101C0EE0F8A95EAF7D901CE
:104F400002C0AA0FBB1F6A95E2F7BD016E2B01C01C
:104F5000220F4A95EAF7892F8623681303C0892F09
:104F6000822B03C02095822F89230E9493270895C6
:104F700021E030E001C0220F8A95EAF72095809168
:104F8000E00182230E949327089521E030E001C0D0
:104F9000220F8A95EAF78091E001822B0E949327E5
:104FA00008958093440208959091A5048091A404EB
:104FB000892B8093840480914302882311F10E94FD
:104FC00073232091410230914202821B930B883857
:104FD000934110F00E94E41B90918404809143025D
:104FE000892B80938404E6E8F4E097E080E0915018
:104FF00029F021912223D9F38F5FF9CF81110E94EB
:10500000E41B80919A048095909184048923909167
:105010009B04892B8093840448E050E063EE74E0A5
:1050200084E894E00E94C82E892BA9F088E0E4E887
:10503000F4E0A3EEB4E001900D928A95E1F7E091DF
:10504000AA04F091AB04309731F00280F381E02D97
:1050500084E894E0099508951092A50486E0E6E8B6
:10506000F4E0DF011D928A95E9F780E090E00E946C
:10507000F42380E090E00E94CF231092A4040E94C9
:10508000D4270895882341F080959091A404892322
:105090008093A4040E94D4270895882339F0909126
:1050A000A404892B8093A4040E94D4270895882304
:1050B00021F00E94EF1B0E94D4270895882339F025
:1050C0009091A504892B8093A5040E94D42708956C
:1050D000882349F1682F8CEF860F813A28F484E801
:1050E00094E00E94A8230CC080E2860F883058F418
:1050F000677081E001C0880F6A95EAF70E94EF1B94
:105100000E94D42708958BE5860F833028F480E031
:1051100090E00E94F4230895685A6B3120F480E0F7
:1051200090E00E94CF230895CF93882309F476C09E
:10513000C82F8CEF8C0F813A58F580918204882318
:1051400019F0813051F01EC08091A504823209F01F
:105150004EC08C2F0E94FC1D18C08091A504823285
:10516000C1F3C43149F018F4CB3049F03EC0C93224
:1051700019F0C83321F039C01092820436C081E0A2
:10518000817003C01092820432C0811147C02FC0C9
:1051900080E28C0F883078F4C77081E090E001C025
:1051A000880FCA95EAF79091A504892B8093A504EE
:1051B0000E94D42733C0EBE5EC0FE33040F4F0E07D
:1051C000ED57FE4F808190E00E94F42327C0C85A1B
:1051D000CB3120F5EC2FF0E0EE0FFF1FEA57FE4F2A
:1051E000808191810E94CF2319C080E0C9CFE6E879
:1051F000F4E08191C81751F084E0EC38F807C9F762
:105200006C2F84E894E00E94B523D2CF6C2F84E801
:1052100094E00E94A8230E94D427F2CFCF91089552
:105220001F93CF93DF93182F893319F0C0E0D0E09C
:1052300002C0C0E5D0E0812F0E949428209741F061
:105240008FE99FE00197F1F700C000002197F6CFAA
:10525000812F0E946828DF91CF911F910895A6E0C9
:10526000B0E0E5E3F9E20C940C2EFC018681978115
:10527000009709F5CF0126E0DE01119601900D920D
:105280002A95E1F7FC01258189819A81222359F031
:10529000662349F00E944C27182F682F89819A8134
:1052A0000E94782703C00E945B27182F69817A81AA
:1052B000812F0E94CD192696E3E00C94282E0E949F
:1052C0002C282FEF84E39CE0215080409040E1F7B0
:1052D00000C000009CE088E10FB6F894A895809388
:1052E00060000FBE90936000FFCF9C013A9521159E
:1052F0003F4130F5BC0166277270AC014427547001
:105300009C012227387094FF0FC090FF02C080E1FB
:1053100001C080E0672B09F08062452B09F08064B2
:10532000232B79F080680895892F8170672B09F00D
:105330008260452B09F08460232B19F08860089562
:1053400080E00895CF93DF93EC01805E9109089788
:1053500010F0209731F4CE010E9475290E945E283A
:1053600005C0CE010E9475290E944D288C2F0E94F5
:105370009428DF91CF910895ABE1B0E0E2ECF9E23F
:105380000C94FD2D498B5A8B6B8B7C8B8D8B9E8B5C
:1053900091111092A4044E0129E0820E911C88E024
:1053A000F40111928A95E9F786E0FE017196D40125
:1053B00001900D928A95E1F780913F0282FF24C00F
:1053C0000E94732320913C0230913D02821B930B7B
:1053D0008838934140F08091400282FB992790F9F0
:1053E00081E0892701C080E080FD0E94BF110E94FA
:1053F00073232091410230914202821B930B883823
:10540000934110F00E94E41B8D85811104C0C401FA
:105410000E945A0AC7C161E0C4010E942F296C0191
:1054200080E5C8168CE7D80639F48E858823B9F054
:1054300081E080934B01B3C191E5C9169CE7D90681
:1054400031F48E85882359F00E94251FA8C1E2E51A
:10545000CE16ECE7DE0619F48E8581110DC00DED38
:1054600013E0512CA12CB12C66246394712C3324AD
:105470003394F7E02F2E49C080914B018823C1F26D
:10548000E3CFC616D70609F097019F5F7901292F50
:1054900030E0F901EE0FFF1FE40FF51F608171810D
:1054A0006115710571F7FFEFEF16FF0609F429C1C9
:1054B000F8016481611131C020914B01822F81700C
:1054C0004E84F80135812681442009F4CAC088231E
:1054D00009F4C7C0332321F1930102C0220F331F07
:1054E0009A95E2F721503109F801868190E028175A
:1054F000390761F15428FFEFAF1ABF0A095F1F4F48
:1055000028E0A216B10409F4FEC0F80140815181DF
:10551000EE24EA94FE2C90E0BACF20E030E0CECF2B
:10552000A3010E2C01C0440F0A94EAF7242B268312
:105530002091DA033091DB032233310568F622E350
:1055400030E03093DB032093DA03C6CF80918004F0
:1055500090918104009729F00E945823C39708F086
:105560001BC180917E04F0917F04FF8BE0E0F0E0AE
:105570002F89821709F463C0282F30E0F901EE0F5C
:10558000FF1FEA58FB4FA081B1812A9EF0012B9E9C
:10559000F00D1124E352FC4F90819A8F91819B8FE3
:1055A00050E090E040E0EA8DFB8DE40FF11DE40F48
:1055B000F11DE080F180E114F104D1F0F801F081F7
:1055C000F88FF801F181F98F90E0E88DF98DE90FFE
:1055D000F11DE90FF11D608171816115710531F0D7
:1055E000E616F70609F451E09F5FEFCF4F5FDBCF80
:1055F0005523F9F09417C8F02A9EF0012B9EF00D68
:105600001124E352FC4F3097B1F034820E171F077C
:1056100009F470CF90917E0489130DC0C9010196E1
:105620008370992780937E0406C00115110509F047
:10563000B3C0E0E0F0E0C9010196837099CF0E1786
:105640001F0709F457CF90E0FC01EE0FFF1FEA5847
:10565000FB4FB182A08201968370992780937F04CB
:1056600049CF311112C0A30102C0440F551F9A95B2
:10567000E2F74150510930E042175307A1F5662384
:1056800099F1C5010E94A81E2EC0822F90E09C01B6
:1056900021503109282339230E2C02C09595879576
:1056A0000A94E2F7232BE9F480FF1BC0F801828102
:1056B0009381892B91F019821A820E9473239C8313
:1056C0008B8384E08D831E82F80182819381988789
:1056D0008F83CE0101960E945A0AF801158281E05B
:1056E00003C0817001C080E093010E2C01C0220F25
:1056F0000A94EAF72095F801968129232683482EFB
:10570000F9CE412CF7CE8E85882379F1552069F1A9
:105710000E947323909381048093800480911504E8
:105720008830A0F591E0980F9093150498E0FE0161
:105730003996DE01119601900D929A95E1F7ECE011
:105740008E9FC00111248A5E9B4F28E0FE01319696
:10575000DC0101900D922A95E1F72FEF3FEFFC015C
:1057600031872087D386C28611C090917E048091B4
:105770007F04981719F00E94341F08C00E94D61E9B
:1057800010928104109280040E94141F81E0582618
:10579000852D80FD3CCE06C0F8013482ABCE81E081
:1057A00090E0F7CF6B96E2E10C94192E1092B900BD
:1057B00088E48093B8000895A0E0B0E0E2EEFBE258
:1057C0000C94042EB82EEB010E9473236C01C4319B
:1057D000D10558F0CF3F8FEFD80759F0CE0164E1E3
:1057E00070E00E94E92D7B0107C0EE24E394F12CC8
:1057F00003C025E0E22EF12C84E8A82E94EA992E2D
:105800001092BC009092BC000E9473238C01809186
:10581000BC0087FD07C0C8010E945823E816F9069E
:10582000B0F729C08091B900887F883041F080911D
:10583000B900887F803119F00FEF1FEF1EC0B092C2
:10584000BB00A092BC000E9473238C018091BC001D
:1058500087FD07C0C8010E945823E816F906B0F773
:105860000AC08091B900887F883111F0803421F717
:1058700000E010E00EC00EEF1FEFCF3F8FEFD80714
:1058800009F4BECFC6010E945823C817D90708F0F3
:10589000B7CFC801CDB7DEB7EBE00C94202E0F9345
:1058A0001F93CF93DF93EB018093BB0084E8809339
:1058B000BC000E9473238C018091BC0087FD0DC049
:1058C000CF3F8FEFD807C1F3C8010E945823C817F4
:1058D000D90790F78EEF9FEF0CC02091B900287F79
:1058E00081E090E0283211F480E090E0919581957C
:1058F0009109DF91CF911F910F9108950F931F93FD
:10590000CF93DF93EC0184EC8093BC000E9473235F
:105910008C018091BC0087FD0DC0CF3F8FEFD80771
:10592000C1F3C8010E945823C817D90790F78EEF1A
:105930009FEF03C08091BB0090E0DF91CF911F915A
:105940000F9108950F931F93CF93DF93EC0184E899
:105950008093BC000E9473238C018091BC0087FD62
:105960000DC0CF3F8FEFD807C1F3C8010E94582365
:10597000C817D90790F78EEF9FEF03C08091BB0047
:1059800090E0DF91CF911F910F910895A0E0B0E0DA
:10599000ECECFCE20C94072EC62F6A017901B801E9
:1059A0000E94DC2B97FD11C0B8018C2F0E944F2C58
:1059B000E601EC0CFD1CCE15DF0539F097FD05C0A6
:1059C000B80189910E944F2CF6CF24E92093BC00A6
:1059D000CDB7DEB7E8E00C94232EA0E0B0E0E3EF13
:1059E000FCE20C94072ED82EC62E7A01E901B801EC
:1059F0000E94DC2B97FD2AC0B8018C2D0E944F2CF1
:105A000097FD24C0B8018D2D81600E94DC2B6701B9
:105A1000219796012E193F092C173D0768F497FD31
:105A200015C0C8010E947E2C97FD02C0F60180833C
:105A3000FFEFCF1ADF0AEDCF97FD08C0C8010E9423
:105A4000A22C97FD03C0CE0DDF1D888324E920938F
:105A5000BC001816190614F480E090E0CDB7DEB74C
:105A6000E8E00C94232E8093BA0085EC8093BC0070
:105A700008951F920F920FB60F9211242F933F9308
:105A80004F935F936F937F938F939F93AF93BF9346
:105A9000CF93DF93EF93FF938091B900887F803895
:105AA00099F058F4882309F474C0803609F073C063
:105AB0001092EB041092ED046EC0883A09F45BC0BA
:105AC000883B09F458C067C08091EB0481111EC067
:105AD0008091BB008093EC048091EC04843120F031
